:020000040800F2
:1000000000500020B514000869130008711300089F
:10001000791300088113000889130008000000000C
:100020000000000000000000000000009113000824
:100030009D13000800000000A9130008B513000874
:10004000FD140008FD140008FD140008FD1400084C
:10005000FD140008FD140008FD140008FD1400083C
:10006000C1130008FD140008FD140008FD14000869
:10007000FD140008FD140008FD140008FD1400081C
:10008000FD140008FD140008FD140008FD1400080C
:10009000FD140008FD140008FD140008FD140008FC
:1000A000FD140008FD140008FD140008FD140008EC
:1000B000FD140008FD140008FD140008FD140008DC
:1000C000FD140008FD140008FD140008FD140008CC
:1000D000FD140008D1130008FD140008FD140008E9
:1000E000FD140008FD140008FD14000800000000C5
:1000F0000000000000000000000000000000000000
:0C01000000000000000000005FF808F1A3
:10010C0010B5054C237833B9044B13B10448AFF345
:10011C0000800123237010BD20000020000000008F
:10012C00B454000808B5034B1BB103490348AFF3A3
:10013C00008008BD0000000024000020B45400081A
:10014C0080B500AF0821804801F0B0FF0346002BBA
:10015C0014BF01230023DAB27C4B1A704FF4805188
:10016C007B4801F0A3FF0346002B14BF012300239F
:10017C00DAB2784B1A704FF40041754801F096FFD3
:10018C000346002B14BF01230023DAB2724B1A7002
:10019C004FF400716C4801F089FF0346002B14BF2B
:1001AC0001230023DAB26D4B1A70684B1B7883F075
:1001BC000103DBB2002B15D1664B1B7883F00103D6
:1001CC00DBB2002B0ED1654B1B7883F00103DBB245
:1001DC00002B07D1604B1B7883F00103DBB2002BA3
:1001EC0000F0AB80594B1B7883F00103DBB2002B82
:1001FC000ED05B4B52221A705A4B00225A63594B49
:10020C0000229A63574B0022DA63564B00221A6481
:10021C00504B1B7883F00103DBB2002B0ED0504BFC
:10022C004C221A704F4B00225A634E4B00229A6399
:10023C004C4B0022DA634B4B00221A64474B1B7861
:10024C0083F00103DBB2002B0ED0454B42221A7017
:10025C00444B00225A63434B00229A63414B0022C9
:10026C00DA63404B00221A643B4B1B7883F001038A
:10027C00DBB2002B44D03A4B53221A70394B00227C
:10028C005A63384B00229A63364B0022DA63354BA3
:10029C0000221A6434E008212B4801F007FF0346C2
:1002AC00002B14BF01230023DAB2284B1A704FF431
:1002BC008051274801F0FAFE0346002B14BF01239E
:1002CC000023DAB2234B1A704FF40041204801F09E
:1002DC00EDFE0346002B14BF01230023DAB21E4BA4
:1002EC001A704FF40071184801F0E0FE0346002B21
:1002FC0014BF01230023DAB2184B1A7000F07AF8FD
:10030C00124B1B7883F00103DBB2002BC3D1114BD2
:10031C001B7883F00103DBB2002BBCD10F4B1B7895
:10032C0083F00103DBB2002BB5D10B4B1B7883F0B0
:10033C000103DBB2002BAED103E0094B4E221A7045
:10034C0000BF00BF80BD00BF000C0140F8010020C1
:10035C0000080140F5010020F6010020F701002003
:10036C000C0200200004004080B582B000AF1C4B92
:10037C001B78012B2FD11A4B00221A70002004F08D
:10038C006DFD0346FB70FB7803F00103002B01D1DC
:10039C0004F091FE134804F026FE00237B600BE072
:1003AC00104A7B68134419780F4A7B6813440A4639
:1003BC001A707B6801337B607B68032BF0DD4FF494
:1003CC00FA7320220749094803F044FF4FF4005107
:1003DC00074801F09AFE00BF0837BD4680BD00BF3C
:1003EC00F40100201002002000020020AC010020CB
:1003FC000010014080B582B000AF202200210D48D2
:10040C0005F025F800237B600B4B31221A7004F0A9
:10041C006BFE04F0E3FE094804F0F2FD322001F01B
:10042C00CBF804F048FE04F0D9FE00BF0837BD46F7
:10043C0080BD00BF30020020030000200C02002011
:10044C0080B582B000AF0346FB71FB79413B162BA4
:10045C0000F29E8001A252F823F000BFB7050008FD
:10046C009D0500089D050008B70500089D050008BE
:10047C009D0500089D0500089D0500089D050008C8
:10048C009D0500089D0500084B0500089D0500080A
:10049C009D0500089D0500089D0500089D050008A8
:1004AC00F9040008DF0400089D0500089D050008FC
:1004BC009D050008C50400084E4B01221A704E4BD6
:1004CC0000221A704D4B01221A704D4B00221A70EB
:1004DC006CE0484B00221A70474B01221A70474BB4
:1004EC0000221A70464B01221A705FE0414B002229
:1004FC001A70414B01221A70404B01221A70404B6A
:10050C0000221A70FB7940F2A46203FB02F23D4B0D
:10051C005A63FB7940F2A46203FB02F2394B9A63F3
:10052C00FB794FF42F6203FB02F2364BDA63FB7953
:10053C004FF42F6203FB02F2324B1A6436E02D4B60
:10054C0001221A702C4B00221A702C4B00221A70AC
:10055C002B4B01221A70FB7940F2A46203FB02F2CE
:10056C00284B5A63FB7940F2A46203FB02F2254B41
:10057C009A63FB794FF42F6203FB02F2214BDA638F
:10058C00FB794FF42F6203FB02F21E4B1A640DE051
:10059C00184B00221A70184B00221A70174B0022AD
:1005AC001A70174B00221A7000E000BF114B1B7819
:1005BC001A464FF48051144801F08FFD0E4B1B78F6
:1005CC001A464FF48061104801F087FD0B4B1B78E5
:1005DC001A464FF480710D4801F07FFD084B1B78D3
:1005EC001A464FF40061094801F077FD00BF083747
:1005FC00BD4680BDF9010020FA010020FB0100205E
:10060C00FC01002000040040000C014000080140E7
:10061C0080B582B000AF0346FB71FB79303B082BF1
:10062C0028D801A252F823F08106000881060008A0
:10063C008106000881060008810600088106000872
:10064C008106000881060008590600080C4B1B782F
:10065C00002B14BF01230023DBB283F00103DBB2B8
:10066C0003F00103DAB2064B1A704FF4FA7000F083
:10067C00A3FF00E000BF00BF0837BD4680BD00BF30
:10068C000A02002080B500AF074B9A78074B1A700E
:10069C00054BDA78064B1A70044B1B781846FFF79B
:1006AC00B7FF00BF80BD00BF000200200200002089
:1006BC000300002080B582B000AF1B4B1A781B4B97
:1006CC001A701A4B1B781846FFF7BAFE164B5A785D
:1006DC00174B1A70164B1B78303B9BB2FB80B7F94B
:1006EC00063040F2A46203FB02F2124B5A63B7F9D4
:1006FC00063040F2A46203FB02F20E4B9A63B7F988
:10070C0006304FF42F6203FB02F20A4BDA63B7F99F
:10071C0006304FF42F6203FB02F2064B1A6400BF43
:10072C000837BD4680BD00BF00020020000000203D
:10073C00010000200004004080B400AF1E4B1B7869
:10074C00002B1CD01D4B01221A701D4B00221A705D
:10075C001C4B01221A701C4B00221A701B4B41F2CD
:10076C0088325A63194B41F288329A63174B42F222
:10077C001072DA63154B42F210721A6417E00F4BC9
:10078C0000221A700E4B00221A700E4B00221A70A7
:10079C000D4B00221A700D4B00225A630B4B00229A
:1007AC009A630A4B0022DA63084B00221A6400BFDA
:1007BC00BD4680BC704700BFF6010020F901002047
:1007CC00FA010020FB010020FC0100200004004085
:1007DC0080B500AF00F08EFE00F084F800F0D6FA81
:1007EC0000F01AF900F0A8FA00F04CF900F080F9CA
:1007FC0000F016FA00F0D2F80021314802F0ACFFFC
:10080C0004212F4802F0A8FF08212D4802F0A4FF74
:10081C000C212B4802F0A0FF2A4B00225A63294BD3
:10082C0000229A63274B0022DA63264B00221A64BB
:10083C000021254802F090FF0421234802F08CFF90
:10084C000821214802F088FF204B00225A631F4BDD
:10085C0000229A631D4B0022DA631C4B00221A649F
:10086C001B4B1C4A002140F6C41004F085FB1A48AF
:10087C0000F0BAFD194B1B685A69184B1B6842F003
:10088C0001025A61154B1B68DA68144B1B6842F065
:10089C002002DA60FFF754FCFFF7F4FEFFF764FD6B
:1008AC00FFF7A8FD0E4B1B78002B02D0FFF744FF7F
:1008BC0001E0FFF7FFFE1E2000F07EFEEAE700BF1E
:1008CC001C010020000400406401002000080040CE
:1008DC000C0000200400002050020020AC0100207D
:1008EC000A02002080B594B000AF07F1280328223B
:1008FC000021184604F0ABFD07F1140300221A6026
:10090C005A609A60DA601A613B1D00221A605A60C4
:10091C009A60DA600123BB624FF48033FB620023E0
:10092C003B630123BB6302237B644FF48033BB64C2
:10093C004FF4E013FB6407F12803184601F016FC92
:10094C000346002B01D000F02DFB0F237B6102230B
:10095C00BB610023FB614FF480633B6200237B622D
:10096C0007F114030221184601F082FE0346002B06
:10097C0001D000F017FB02237B604FF40043FB60B7
:10098C003B1D184602F002F80346002B01D000F084
:10099C0009FB00BF5037BD4680BD000080B584B058
:1009AC0000AF3B1D00221A605A609A60184B194A1E
:1009BC001A60174B00229A60154B00221A73144BC5
:1009CC0000221A75124B4FF46022DA61104B002290
:1009DC005A600F4B01221A610D4800F011FE0346BC
:1009EC00002B01D000F0DEFA01237B600123BB60F9
:1009FC000723FB603B1D1946054800F0D9FE034652
:100A0C00002B01D000F0CEFA00BF1037BD4680BDE0
:100A1C003C0000200024014080B500AF174B184A61
:100A2C001A60164B4FF482725A60144B00229A6073
:100A3C00124B0022DA60114B00221A610F4B00227C
:100A4C005A610E4B4FF400729A610C4B1822DA610A
:100A5C000A4B00221A62094B00225A62074B0022F1
:100A6C009A62064B0A22DA62044802F045F8034601
:100A7C00002B01D000F096FA00BF80BD6C00002066
:100A8C000030014080B500AF174B184A1A60164B66
:100A9C004FF482725A60144B00229A60124B00225F
:100AAC00DA60114B00221A610F4B00225A610E4B77
:100ABC004FF400729A610C4B1822DA610A4B002237
:100ACC001A62094B00225A62074B00229A62064BAB
:100ADC000A22DA62044802F00FF80346002B01D018
:100AEC0000F060FA00BF80BDC40000200038004058
:100AFC0080B58EB000AF07F1280300221A605A604F
:100B0C009A60DA6007F1200300221A605A603B1DDC
:100B1C0000221A605A609A60DA601A615A619A610E
:100B2C003D4B3E4A1A603C4B07225A603A4B00221E
:100B3C009A60394B4EF66022DA60374B00221A610C
:100B4C00354B00229A61344802F05EFD0346002BBF
:100B5C0001D000F027FA4FF48053BB6207F1280351
:100B6C0019462D4802F05CFF0346002B01D000F023
:100B7C0019FA294802F097FD0346002B01D000F02A
:100B8C0011FA00233B6200237B6207F12003194614
:100B9C00214803F0B1FA0346002B01D000F002FA11
:100BAC0060237B600023BB600023FB6000237B6120
:100BBC003B1D00221946184802F070FE0346002B1C
:100BCC0001D000F0EFF93B1D04221946124802F047
:100BDC0065FE0346002B01D000F0E4F93B1D082212
:100BEC0019460D4802F05AFE0346002B01D000F0C6
:100BFC00D9F93B1D0C221946074802F04FFE03465B
:100C0C00002B01D000F0CEF9034800F0EBFA00BF46
:100C1C003837BD4680BD00BF1C01002000040040D9
:100C2C0080B58EB000AF07F1280300221A605A601D
:100C3C009A60DA6007F1200300221A605A603B1DAB
:100C4C0000221A605A609A60DA601A615A619A61DD
:100C5C00374B384A1A60364B07225A60344B002205
:100C6C009A60334B42F21072DA60314B00221A61F7
:100C7C002F4B00229A612E4802F0C6FC0346002B33
:100C8C0001D000F08FF94FF48053BB6207F12803B9
:100C9C001946274802F0C4FE0346002B01D000F091
:100CAC0081F9234802F0FFFC0346002B01D000F031
:100CBC0079F900233B6200237B6207F1200319467C
:100CCC001B4803F019FA0346002B01D000F06AF917
:100CDC0060237B600023BB600023FB6000237B61EF
:100CEC003B1D00221946124802F0D8FD0346002B8A
:100CFC0001D000F057F93B1D042219460C4802F0B4
:100D0C00CDFD0346002B01D000F04CF93B1D082211
:100D1C001946074802F0C2FD0346002B01D000F033
:100D2C0041F9034800F05EFA00BF3837BD4680BD7C
:100D3C00640100200008004080B500AF114B124A3E
:100D4C001A60104B4FF4E1325A600E4B00229A603D
:100D5C000C4B0022DA600B4B00221A61094B0C225F
:100D6C005A61084B00229A61064B0022DA61054851
:100D7C0003F020FA0346002B01D000F013F900BF5A
:100D8C0080BD00BFAC0100200038014080B588B0A8
:100D9C0000AF07F1100300221A605A609A60DA6003
:100DAC00724B9B69714A43F0100393616F4B9B69C3
:100DBC0003F01003FB60FB686C4B9B696B4A43F0C0
:100DCC0020039361694B9B6903F02003BB60BB68F4
:100DDC00664B9B69654A43F004039361634B9B69C3
:100DEC0003F004037B607B68604B9B695F4A43F0B4
:100DFC00080393615D4B9B6903F008033B603B6800
:100E0C0000224FF400515A4801F067F901220821E1
:100E1C00584801F062F900224FF41161554801F075
:100E2C005CF9002241F20441534801F056F90122C9
:100E3C004FF49041504801F050F94FF400533B618E
:100E4C0001237B610023BB610223FB6107F11003CB
:100E5C001946474800F0A6FF04233B61474B7B61D2
:100E6C000123BB6107F110031946424800F09AFFB9
:100E7C0008233B6101237B610123BB610323FB61DD
:100E8C0007F1100319463B4800F08CFF10233B611F
:100E9C0001237B610223BB610323FB6107F1100378
:100EAC001946344800F07EFF40F204433B610123B5
:100EBC007B610023BB610223FB6107F11003194620
:100ECC002D4800F06FFF4FF490433B6101237B6191
:100EDC000123BB610323FB6107F11003194626486C
:100EEC0000F060FF4FF480533B6101237B610023D2
:100EFC00BB610323FB6107F1100319461E4800F088
:100F0C0051FF4FF410633B6101237B610023BB61F4
:100F1C000223FB6107F110031946164800F042FF4B
:100F2C004FF410433B6100237B610023BB6107F14D
:100F3C00100319460F4800F035FF4FF402733B6164
:100F4C0000237B610023BB6107F1100319460A489B
:100F5C0000F028FF00220021082000F03AFE0820B3
:100F6C0000F053FE00BF2037BD4680BD001002408C
:100F7C000010014000080140000C0140000021104D
:100F8C0080B483B000AF0346FB80FB88042B02D1F6
:100F9C00034B01221A7000BF0C37BD4680BC704752
:100FAC00F401002080B400AF72B600BF00BFFDE7B3
:100FBC0080B485B000AF154B9B69144A43F0010314
:100FCC009361124B9B6903F00103BB60BB680F4B31
:100FDC00DB690E4A43F08053D3610C4BDB6903F0A1
:100FEC0080537B607B680A4B5B68FB60FB6823F07B
:100FFC00E063FB60FB6843F00073FB60044AFB6832
:10100C00536000BF1437BD4680BC704700100240CF
:10101C000000014080B588B000AF786007F1100384
:10102C0000221A605A609A60DA607B681B68144A66
:10103C00934221D1134B9B69124A43F40073936181
:10104C00104B9B6903F40073FB60FB680D4B9B69B1
:10105C000C4A43F0040393610A4B9B6903F00403AD
:10106C00BB60BB6802233B6103237B6107F1100368
:10107C001946054800F096FE00BF2037BD4680BDDE
:10108C0000240140001002400008014080B58AB0E5
:10109C0000AF786007F1180300221A605A609A605A
:1010AC00DA607B681B68314A934230D1304B9B69C4
:1010BC002F4A43F4805393612D4B9B6903F4805367
:1010CC007B617B692A4B9B69294A43F0040393613A
:1010DC00274B9B6903F004033B613B69A023BB6175
:1010EC000223FB6103237B6207F118031946214895
:1010FC0000F058FE4023BB610023FB6100233B62E0
:10110C0007F1180319461B4800F04CFE29E07B68D8
:10111C001B68194A934224D1154BDB69144A43F4DA
:10112C008043D361124BDB6903F48043FB60FB68A3
:10113C000F4B9B690E4A43F0080393610C4B9B6960
:10114C0003F00803BB60BB684FF42043BB61022370
:10115C00FB6103237B6207F118031946074800F073
:10116C0021FE00BF2837BD4680BD00BF00300140C6
:10117C00001002400008014000380040000C014003
:10118C0080B485B000AF78607B681B68124A9342CC
:10119C000CD1124BDB69114A43F00203D3610F4BA4
:1011AC00DB6903F00203FB60FB6810E07B681B68E3
:1011BC000B4A93420BD1094BDB69084A43F00403F9
:1011CC00D361064BDB6903F00403BB60BB6800BF53
:1011DC001437BD4680BC704700040040001002402C
:1011EC000008004080B58AB000AF786007F11403A6
:1011FC0000221A605A609A60DA607B681B68284A81
:10120C0093422AD1274B9B69264A43F008039361EA
:10121C00244B9B6903F008033B613B6933237B61DF
:10122C000223BB6102233B6207F1140319461E48DB
:10123C0000F0B8FD1D4B5B687B627B6A23F4406356
:10124C007B627B6A43F0E0637B627B6A43F40063FE
:10125C007B62164A7B6A53601DE07B681B68144AEC
:10126C00934218D10F4B9B690E4A43F008039361CC
:10127C000C4B9B6903F00803FB60FB684FF4E073B5
:10128C007B610223BB6102233B6207F11403194605
:10129C00054800F087FD00BF2837BD4680BD00BF64
:1012AC000004004000100240000C0140000001400E
:1012BC000008004080B588B000AF786007F11003DB
:1012CC0000221A605A609A60DA607B681B68204AB8
:1012DC00934239D11F4B9B691E4A43F4804393615F
:1012EC001C4B9B6903F48043FB60FB68194B9B69A7
:1012FC00184A43F004039361164B9B6903F00403F3
:10130C00BB60BB684FF400733B6102237B6103231A
:10131C00FB6107F1100319460F4800F043FD4FF431
:10132C0080633B6100237B610023BB6107F11003E9
:10133C001946094800F036FD00220021252000F056
:10134C0048FC252000F061FC00BF2037BD4680BD65
:10135C0000380140001002400008014080B400AF8A
:10136C0000BFFDE780B400AF00BFFDE780B400AF65
:10137C0000BFFDE780B400AF00BFFDE780B400AF55
:10138C0000BFFDE780B400AF00BFBD4680BC704716
:10139C0080B400AF00BFBD4680BC704780B400AFC6
:1013AC0000BFBD4680BC704780B500AF00F0E8F8C8
:1013BC0000BF80BD80B500AF042000F0BFFE00BFB1
:1013CC0080BD000080B500AF034800F045F802482E
:1013DC0002F0C4FF00BF80BDAC01002080B400AFA0
:1013EC0000BFBD4680BC704780B582B000AF78604E
:1013FC007B6800221A847B6800225A847B68042252
:10140C000021184604F023F800BF0837BD4680BD04
:10141C0080B485B000AF78600B46FB707B681B8C8A
:10142C009BB201339BB203F01F03FB817B685B8C87
:10143C009BB2FA899A4209D07B681B8C9BB21946E5
:10144C007B68FA785A547B68FA891A8400BF14377F
:10145C00BD4680BC7047000080B586B000AF786098
:10146C007B681B681B687B617B681B68DB683B6166
:10147C007B6903F02003002B11D03B6903F02003A0
:10148C00002B0CD07B681B681B687B681B685B6837
:10149C00FB73FB7B19460348FFF7BAFF00BF1837F5
:1014AC00BD4680BD50020020FFF798FF0B480C4949
:1014BC000C4A002302E0D458C4500433C4188C42A4
:1014CC00F9D3094A094C002301E013600432A2420B
:1014DC00FBD303F0C5FFFFF77BF97047000000203A
:1014EC002000002000550008200000207802002079
:1014FC00FEE7000080B500AF084B1B68074A43F0BD
:10150C0010031360032000F059FB0F2000F008F8C3
:10151C00FFF74EFD0023184680BD00BF002002409F
:10152C0080B582B000AF7860124B1A68124B1B78F2
:10153C0019464FF47A73B3FBF1F3B2FBF3F318468D
:10154C0000F071FB0346002B01D001230EE07B68F9
:10155C000F2B0AD8002279684FF0FF3000F039FBCE
:10156C00064A7B681360002300E001231846083705
:10157C00BD4680BD140000201C0000201800002077
:10158C0080B400AF054B1B781A46054B1B681344FF
:10159C00034A136000BFBD4680BC70471C0000208E
:1015AC007402002080B400AF024B1B681846BD4685
:1015BC0080BC70477402002080B584B000AF7860A6
:1015CC00FFF7F0FFB8607B68FB60FB68B3F1FF3F8F
:1015DC0005D00A4B1B781A46FB681344FB6000BF0E
:1015EC00FFF7E0FF0246BB68D31AFA689A42F7D8B5
:1015FC0000BF00BF1037BD4680BD00BF1C000020DF
:10160C0080B586B000AF78600023FB7500233B618A
:10161C000023BB600023FB607B68002B01D10123FE
:10162C00BEE07B689B68002B7B689B6A002B09D112
:10163C007B680022DA627B68002283F824207868B9
:10164C00FFF7E8FC786800F0ABF90346FB757B68A4
:10165C009B6A03F01003002B40F09980FB7D002B5C
:10166C0040F095807B689B6A23F4885323F0020337
:10167C0043F002027B689A627B685A687B68DB697C
:10168C001A437B681B7B5B001343BA681343BB6034
:10169C007B689B68B3F5807F03D07B689B68012BCC
:1016AC0002D14FF4807300E000233A6913433B618D
:1016BC007B681B7D012B19D17B681B7B002B09D10F
:1016CC007B689B69013B5A033B69134343F40063FA
:1016DC003B610BE07B689B6A43F020027B689A625B
:1016EC007B68DB6A43F001027B68DA627B681B680B
:1016FC005B6823F469417B681B683A690A435A604A
:10170C007B681B689A68284B13407A681268B96822
:10171C000B4393607B689B68B3F5807F03D07B6839
:10172C009B68012B04D17B681B69013B1B05FB608B
:10173C007B681B68DB6A23F470017B681B68FA68A2
:10174C000A43DA627B681B689A68184B1340BA68C4
:10175C009A420BD17B680022DA627B689B6A23F089
:10176C00030343F001027B689A6218E07B689B6A72
:10177C0023F0120343F010027B689A627B68DB6AE9
:10178C0043F001027B68DA620123FB7507E07B689A
:10179C009B6A43F010027B689A620123FB75FB7D08
:1017AC0018461837BD4680BDFDF7E1FFFE0E1FFF42
:1017BC0080B485B000AF786039600023FB730023E0
:1017CC00BB607B6893F82430012B01D10223DCE051
:1017DC007B68012283F824203B685B68062B1CD8AD
:1017EC007B681B68596B3B685A6813469B00134413
:1017FC00053B1F2202FA03F3DB4319403B681868D0
:10180C003B685A6813469B001344053B00FA03F2ED
:10181C007B681B680A435A633CE03B685B680C2B93
:10182C001CD87B681B68196B3B685A6813469B0075
:10183C001344233B1F2202FA03F3DB4319403B689A
:10184C0018683B685A6813469B001344233B00FA04
:10185C0003F27B681B680A431A631BE07B681B68F6
:10186C00D96A3B685A6813469B001344413B1F22BC
:10187C0002FA03F3DB4319403B6818683B685A686B
:10188C0013469B001344413B00FA03F27B681B6830
:10189C000A43DA623B681B68092B1CD97B681B68FE
:1018AC00D9683B681A6813465B0013441E3B072239
:1018BC0002FA03F3DB4319403B6898683B681A68EB
:1018CC0013465B0013441E3B00FA03F27B681B6853
:1018DC000A43DA6019E07B681B6819693B681A686F
:1018EC0013465B001344072202FA03F3DB4319404F
:1018FC003B6898683B681A6813465B00134400FA0F
:10190C0003F27B681B680A431A613B681B68102B47
:10191C0003D03B681B68112B32D17B681B681D4AB6
:10192C00934225D17B681B689B6803F40003002B52
:10193C0026D17B681B689A687B681B6842F400029E
:10194C009A603B681B68102B1AD1134B1B68134A07
:10195C00A2FB03239A0C13469B0013445B00BB6051
:10196C0002E0BB68013BBB60BB68002BF9D107E010
:10197C007B689B6A43F020027B689A620123FB73AD
:10198C007B68002283F82420FB7B18461437BD4665
:10199C0080BC7047002401401400002083DE1B43F0
:1019AC0080B584B000AF78600023FB607B681B6857
:1019BC009B6803F00103012B2ED17B681B689A688E
:1019CC007B681B6822F001029A60FFF7EBFDF86060
:1019DC001BE0FFF7E7FD0246FB68D31A022B14D974
:1019EC007B681B689B6803F00103012B0DD17B689E
:1019FC009B6A43F010027B689A627B68DB6A43F057
:101A0C0001027B68DA62012307E07B681B689B6834
:101A1C0003F00103012BDCD0002318461037BD4620
:101A2C0080BD000080B485B000AF78607B6803F0A7
:101A3C000703FB600C4BDB68BB60BA684FF6FF0317
:101A4C001340BB60FB681A02BB68134343F0BF63CF
:101A5C0043F40033BB60044ABB68D36000BF143747
:101A6C00BD4680BC704700BF00ED00E080B400AF05
:101A7C00044BDB681B0A03F007031846BD4680BC09
:101A8C00704700BF00ED00E080B483B000AF0346A8
:101A9C00FB7197F90730002B0BDBFB7903F01F026E
:101AAC00064997F907305B09012000FA02F241F868
:101ABC00232000BF0C37BD4680BC704700E100E01E
:101ACC0080B483B000AF03463960FB7197F90730DF
:101ADC00002B0ADB3B68DAB20C4997F9073012018C
:101AEC00D2B20B4483F800230AE03B68DAB208490F
:101AFC00FB7903F00F03043B1201D2B20B441A76AC
:101B0C0000BF0C37BD4680BC704700BF00E100E051
:101B1C0000ED00E080B489B000AFF860B9607A6085
:101B2C00FB6803F00703FB61FB69C3F10703042B9C
:101B3C0028BF0423BB61FB690433062B02D9FB6964
:101B4C00033B00E000237B614FF0FF32BB6902FADC
:101B5C0003F3DA43BB681A407B699A404FF0FF31BC
:101B6C007B6901FA03F3D9437B680B401343184696
:101B7C002437BD4680BC704780B582B000AF78601A
:101B8C007B68013BB3F1807F01D301230FE00A4A4C
:101B9C007B68013B53600F214FF0FF30FFF790FF44
:101BAC00054B00229A60044B07221A60002318464A
:101BBC000837BD4680BD00BF10E000E080B582B0A4
:101BCC0000AF78607868FFF72DFF00BF0837BD467F
:101BDC0080BD80B586B000AF0346B9607A60FB73F8
:101BEC0000237B61FFF742FF78617A68B9687869F6
:101BFC00FFF790FF024697F90F3011461846FFF792
:101C0C005FFF00BF1837BD4680BD80B582B000AF06
:101C1C000346FB7197F907301846FFF735FF00BFF5
:101C2C000837BD4680BD80B582B000AF786078685B
:101C3C00FFF7A2FF034618460837BD4680BD80B4A7
:101C4C0085B000AF78600023FB737B6893F821307C
:101C5C00DBB2022B08D07B6804229A637B680022DB
:101C6C0083F82020012320E07B681B681A687B68BE
:101C7C001B6822F00E021A607B681B681A687B686E
:101C8C001B6822F001021A607B681A6C7B68DB6BA4
:101C9C00012101FA02F25A607B68012283F82120AB
:101CAC007B68002283F82020FB7B18461437BD4646
:101CBC0080BC704780B584B000AF78600023FB73A4
:101CCC007B6893F82130DBB2022B05D07B680422B1
:101CDC009A630123FB7351E07B681B681A687B686D
:101CEC001B6822F00E021A607B681B681A687B68FE
:101CFC001B6822F001021A607B681B68224A93421F
:101D0C0029D07B681B68214A934222D07B681B68D0
:101D1C001F4A93421AD07B681B681E4A934212D00A
:101D2C007B681B681C4A93420AD07B681B681B4A61
:101D3C00934202D14FF480130EE04FF080730BE00E
:101D4C004FF4803308E04FF4805305E04FF4807378
:101D5C0002E0102300E00123114A53607B6801224A
:101D6C0083F821207B68002283F820207B685B6B42
:101D7C00002B03D07B685B6B78689847FB7B18461D
:101D8C001037BD4680BD00BF080002401C00024059
:101D9C003000024044000240580002406C000240F7
:101DAC000000024080B48BB000AF78603960002333
:101DBC007B6200233B6269E101227B6A02FA03F336
:101DCC00FB613B681B68FA691340BB61BA69FB692C
:101DDC009A4240F058813B685B689A4A93425ED0C5
:101DEC00984A934275D8984A934258D0964A93424F
:101DFC006FD8964A934252D0944A934269D8944AE7
:101E0C0093424CD0924A934263D8924A934246D022
:101E1C00904A93425DD8122B2AD8122B59D801A282
:101E2C0052F823F0AB1E0008851E0008971E000810
:101E3C00D91E0008DF1E0008DF1E0008DF1E000888
:101E4C00DF1E0008DF1E0008DF1E0008DF1E000872
:101E5C00DF1E0008DF1E0008DF1E0008DF1E000862
:101E6C00DF1E0008DF1E00088D1E0008A11E0008E2
:101E7C00794A934213D02CE03B68DB683B6229E043
:101E8C003B68DB6804333B6224E03B68DB68083367
:101E9C003B621FE03B68DB680C333B621AE03B683B
:101EAC009B68002B02D104233B6213E03B689B68C8
:101EBC00012B05D108233B627B68FA691A6109E0A2
:101ECC0008233B627B68FA695A6103E000233B629A
:101EDC0000E000BFBB69FF2B01D87B6801E07B6889
:101EEC0004337B61BB69FF2B02D87B6A9B0002E049
:101EFC007B6A083B9B003B617B691A680F213B693D
:101F0C0001FA03F3DB431A40396A3B6901FA03F324
:101F1C001A437B691A603B685B6803F08053002BA3
:101F2C0000F0B1804D4B9B694C4A43F00103936127
:101F3C004A4B9B6903F00103BB60BB68484A7B6A50
:101F4C009B08023352F82330FB607B6A03F00303D7
:101F5C009B000F2202FA03F3DB43FA681340FB6089
:101F6C007B68404A934213D07B683F4A93420DD022
:101F7C007B683E4A934207D07B683D4A934201D12D
:101F8C00032306E0042304E0022302E0012300E023
:101F9C0000237A6A02F0030292009340FA6813431A
:101FAC00FB602F497B6A9B080233FA6841F82320B7
:101FBC003B685B6803F48013002B06D02D4B9A68AA
:101FCC002C49BB6913438B6006E02A4B9A68BB69AA
:101FDC00DB43284913408B603B685B6803F40013B8
:101FEC00002B06D0234BDA682249BB691343CB6024
:101FFC0006E0204BDA68BB69DB431E491340CB601B
:10200C003B685B6803F40033002B06D0194B5A680D
:10201C001849BB6913434B6006E0164B5A68BB6901
:10202C00DB43144913404B603B685B6803F480331B
:10203C00002B21D00F4B1A680E49BB6913430B6060
:10204C0021E000BF0000321000003110000022100F
:10205C0000002110000012100000111000100240AE
:10206C000000014000080140000C0140001001403C
:10207C0000140140000401400B4B1A68BB69DB43A0
:10208C00094913400B607B6A01337B623B681A6819
:10209C007B6A22FA03F3002B7FF48EAE00BF00BFE5
:1020AC002C37BD4680BC70470004014080B485B01D
:1020BC0000AF78600B467B807B689A687B88134006
:1020CC00002B02D00123FB7301E00023FB73FB7B8D
:1020DC0018461437BD4680BC704780B483B000AF3F
:1020EC0078600B467B8013467B707B78002B03D08B
:1020FC007A887B681A6103E07B881A047B681A6112
:10210C0000BF0C37BD4680BC704780B485B000AFB3
:10211C0078600B467B807B68DB68FB607A88FB68A9
:10212C0013401A04FB68D9437B880B401A437B6825
:10213C001A6100BF1437BD4680BC704780B582B0B1
:10214C0000AF0346FB80084B5A69FB881340002BF9
:10215C0006D0054AFB885361FB881846FEF710FF32
:10216C0000BF0837BD4680BD0004014080B586B075
:10217C0000AF78607B68002B01D1012372E27B6891
:10218C001B6803F00103002B00F08780924B5B6807
:10219C0003F00C03042B0CD08F4B5B6803F00C0387
:1021AC00082B12D18C4B5B6803F48033B3F5803F62
:1021BC000BD1894B1B6803F40033002B6CD07B686C
:1021CC005B68002B68D101234CE27B685B68B3F53C
:1021DC00803F06D1804B1B687F4A43F480331360E9
:1021EC002EE07B685B68002B0CD17B4B1B687A4A1A
:1021FC0023F480331360784B1B68774A23F48023D5
:10220C0013601DE07B685B68B3F5A02F0CD1724B9B
:10221C001B68714A43F4802313606F4B1B686E4A32
:10222C0043F4803313600BE06B4B1B686A4A23F456
:10223C0080331360684B1B68674A23F48023136058
:10224C007B685B68002B13D0FFF7ACF9386108E0B2
:10225C00FFF7A8F902463B69D31A642B01D9032373
:10226C0000E25D4B1B6803F40033002BF0D014E04C
:10227C00FFF798F9386108E0FFF794F902463B69DB
:10228C00D31A642B01D90323ECE1534B1B6803F4E1
:10229C000033002BF0D100E000BF7B681B6803F01B
:1022AC000203002B63D04C4B5B6803F00C03002B38
:1022BC000BD0494B5B6803F00C03082B1CD1464B2D
:1022CC005B6803F48033002B16D1434B1B6803F07F
:1022DC000203002B05D07B681B69012B01D0012365
:1022EC00C0E13D4B1B6823F0F8027B685B69DB00A7
:1022FC00394913430B603AE07B681B69002B20D0F3
:10230C00364B01221A60FFF74DF9386108E0FFF7F0
:10231C0049F902463B69D31A022B01D90323A1E1E7
:10232C002D4B1B6803F00203002BF0D02A4B1B68CB
:10233C0023F0F8027B685B69DB00274913430B60D1
:10234C0015E0264B00221A60FFF72CF9386108E0E3
:10235C00FFF728F902463B69D31A022B01D9032354
:10236C0080E11D4B1B6803F00203002BF0D17B684E
:10237C001B6803F00803002B3AD07B689B69002B89
:10238C0019D0174B01221A60FFF70CF9386108E0DD
:10239C00FFF708F902463B69D31A022B01D9032334
:1023AC0060E10D4B5B6A03F00203002BF0D00120BF
:1023BC0000F0CEFA1CE00A4B00221A60FFF7F2F88C
:1023CC0038610FE0FFF7EEF802463B69D31A022B97
:1023DC0008D9032346E100BF00100240000042422E
:1023EC0080044242924B5B6A03F00203002BE9D15A
:1023FC007B681B6803F00403002B00F0A68000230D
:10240C00FB758B4BDB6903F08053002B0DD1884B94
:10241C00DB69874A43F08053D361854BDB6903F05A
:10242C008053BB60BB680123FB75824B1B6803F4B4
:10243C008073002B18D17F4B1B687E4A43F480734A
:10244C001360FFF7AFF8386108E0FFF7ABF802460E
:10245C003B69D31A642B01D9032303E1754B1B6829
:10246C0003F48073002BF0D07B68DB68012B06D162
:10247C006F4B1B6A6E4A43F0010313622DE07B68BD
:10248C00DB68002B0CD16A4B1B6A694A23F00103F1
:10249C001362674B1B6A664A23F0040313621CE049
:1024AC007B68DB68052B0CD1614B1B6A604A43F0DF
:1024BC00040313625E4B1B6A5D4A43F00103136213
:1024CC000BE05B4B1B6A5A4A23F001031362584B17
:1024DC001B6A574A23F0040313627B68DB68002BEA
:1024EC0015D0FFF75FF838610AE0FFF75BF802469A
:1024FC003B69D31A41F28832934201D90323B1E0EC
:10250C004B4B1B6A03F00203002BEED014E0FFF7D9
:10251C0049F838610AE0FFF745F802463B69D31ADF
:10252C0041F28832934201D903239BE0404B1B6A52
:10253C0003F00203002BEED1FB7D012B05D13C4BAC
:10254C00DB693B4A23F08053D3617B68DB69002B4A
:10255C0000F08780364B5B6803F00C03082B61D0CE
:10256C007B68DB69022B46D1334B00221A60FFF7E4
:10257C0019F8386108E0FFF715F802463B69D31AE1
:10258C00022B01D903236DE0294B1B6803F0007368
:10259C00002BF0D17B681B6AB3F5803F08D1244B2C
:1025AC005B6823F400327B689B68214913434B60C2
:1025BC001F4B5B6823F474127B68196A7B685B6A37
:1025CC000B431B4913434B601B4B01221A60FEF754
:1025DC00E9FF386108E0FEF7E5FF02463B69D31AD4
:1025EC00022B01D903233DE0114B1B6803F0007350
:1025FC00002BF0D035E0104B00221A60FEF7D2FF12
:10260C00386108E0FEF7CEFF02463B69D31A022B75
:10261C0001D9032326E0064B1B6803F00073002B43
:10262C00F0D11EE07B68DB69012B07D1012319E097
:10263C000010024000700040600042420B4B5B688F
:10264C00FB60FB6803F480327B681B6A9A4206D1FC
:10265C00FB6803F470127B685B6A9A4201D0012319
:10266C0000E0002318461837BD4680BD001002401C
:10267C0080B584B000AF786039607B68002B01D1E5
:10268C000123D0E06A4B1B6803F007033A689A42B7
:10269C0010D9674B1B6823F0070265493B6813434D
:1026AC000B60634B1B6803F007033A689A4201D036
:1026BC000123B8E07B681B6803F00203002B20D0D9
:1026CC007B681B6803F00403002B05D0594B5B6837
:1026DC00584A43F4E06353607B681B6803F00803BB
:1026EC00002B05D0534B5B68524A43F46053536044
:1026FC00504B5B6823F0F0027B689B684D49134399
:10270C004B607B681B6803F00103002B40D07B6897
:10271C005B68012B07D1474B1B6803F40033002B7C
:10272C0015D101237FE07B685B68022B07D1414BFD
:10273C001B6803F00073002B09D1012373E03D4BA0
:10274C001B6803F00203002B01D101236BE0394B12
:10275C005B6823F003027B685B68364913434B606C
:10276C00FEF720FFF8600AE0FEF71CFF0246FB684C
:10277C00D31A41F28832934201D9032353E02D4BF3
:10278C005B6803F00C027B685B689B009A42EBD1A0
:10279C00274B1B6803F007033A689A4210D2244B6C
:1027AC001B6823F0070222493B6813430B60204B44
:1027BC001B6803F007033A689A4201D0012332E008
:1027CC007B681B6803F00403002B08D0194B5B6873
:1027DC0023F4E0627B68DB68164913434B607B682B
:1027EC001B6803F00803002B09D0124B5B6823F421
:1027FC0060527B681B69DB000E4913434B6000F091
:10280C0021F802460B4B5B681B0903F00F030A49C6
:10281C00CB5C22FA03F3094A1360094B1B68184678
:10282C00FEF77EFE002318461037BD4680BD00BF64
:10283C000020024000100240CC540008140000207C
:10284C001800002080B487B000AF0023FB60002389
:10285C00BB6000237B6100237B6000233B611E4B2C
:10286C005B68FB60FB6803F00C03042B02D0082BA5
:10287C0003D027E0194B3B6127E0FB689B0C03F06E
:10288C000F03174AD35C7B60FB6803F48033002B87
:10289C0010D0114B5B685B0C03F00103114AD35C45
:1028AC00BB607B680D4A03FB02F2BB68B2FBF3F31F
:1028BC007B6104E07B680C4A02FB03F37B617B6960
:1028CC003B6102E0054B3B6100BF3B6918461C377E
:1028DC00BD4680BC704700BF0010024000127A0059
:1028EC00E4540008F454000800093D0080B400AF23
:1028FC00024B1B681846BD4680BC70471400002074
:10290C0080B500AFFFF7F2FF0246054B5B681B0A70
:10291C0003F007030349CB5C22FA03F3184680BD8E
:10292C0000100240DC54000880B500AFFFF7DEFF5A
:10293C000246054B5B68DB0A03F007030349CB5CDB
:10294C0022FA03F3184680BD00100240DC54000844
:10295C0080B485B000AF78600A4B1B680A4AA2FBB2
:10296C0003235B0A7A6802FB03F3FB6000BFFB687E
:10297C005A1EFA60002BF9D100BF00BF1437BD46B8
:10298C0080BC704714000020D34D621080B586B017
:10299C0000AF786000233B610023FB607B681B6801
:1029AC0003F00103002B7DD00023FB754F4BDB693B
:1029BC0003F08053002B0DD14C4BDB694B4A43F099
:1029CC008053D361494BDB6903F08053BB60BB6818
:1029DC000123FB75464B1B6803F48073002B18D145
:1029EC00434B1B68424A43F480731360FEF7DAFDD5
:1029FC00386108E0FEF7D6FD02463B69D31A642B1A
:102A0C0001D903236DE03A4B1B6803F48073002B50
:102A1C00F0D0364B1B6A03F44073FB60FB68002B51
:102A2C002ED07B685B6803F44073FA689A4227D017
:102A3C002E4B1B6A23F44073FB602E4B01221A6051
:102A4C002C4B00221A60294AFB681362FB6803F0C6
:102A5C000103002B14D0FEF7A5FD38610AE0FEF748
:102A6C00A1FD02463B69D31A41F28832934201D947
:102A7C00032336E01D4B1B6A03F00203002BEED040
:102A8C001A4B1B6A23F440727B685B68174913432B
:102A9C000B62FB7D012B05D1144BDB69134A23F030
:102AAC008053D3617B681B6803F00203002B08D0B2
:102ABC000E4B5B6823F440427B689B680B491343C5
:102ACC004B607B681B6803F01003002B08D0074B8E
:102ADC005B6823F480027B68DB68044913434B601A
:102AEC00002318461837BD4680BD00BF00100240B9
:102AFC00007000404004424280B582B000AF786064
:102B0C007B68002B01D1012376E07B685B6A002B8C
:102B1C0008D17B685B68B3F5827F09D07B680022A3
:102B2C00DA6105E07B6800221A617B6800225A6139
:102B3C007B6800229A627B6893F85130DBB2002BE1
:102B4C0006D17B68002283F850207868FEF79EFA45
:102B5C007B68022283F851207B681B681A687B68AB
:102B6C001B6822F040021A607B685B6803F4827277
:102B7C007B689B6803F404431A437B68DB6803F4AB
:102B8C0000631A437B681B6903F002031A437B68DA
:102B9C005B6903F001031A437B689B6903F40073C0
:102BAC001A437B68DB6903F038031A437B681B6AA2
:102BBC0003F0800342EA03017B689B6A03F4005232
:102BCC007B681B680A431A607B689B691A0C7B68DC
:102BDC001B6802F004025A607B681B68DA697B6828
:102BEC001B6822F40062DA617B6800225A657B68FC
:102BFC00012283F85120002318460837BD4680BDBA
:102C0C0080B588B000AFF860B9603B601346FB80BC
:102C1C000023FB77FB6893F85030012B01D1022382
:102C2C002DE1FB68012283F85020FEF7BBFCB86154
:102C3C00FB88FB82FB6893F85130DBB2012B02D08E
:102C4C000223FB7716E1BB68002B02D0FB88002B1C
:102C5C0002D10123FB770DE1FB68032283F851209D
:102C6C00FB6800225A65FB68BA681A63FB68FA882D
:102C7C009A86FB68FA88DA86FB6800229A63FB68FE
:102C8C0000229A87FB680022DA87FB6800225A64CC
:102C9C00FB6800221A64FB689B68B3F5004F0FD1E8
:102CAC00FB681B681A68FB681B6822F040021A60FC
:102CBC00FB681B681A68FB681B6842F480421A6048
:102CCC00FB681B681B6803F04003402B07D0FB68B4
:102CDC001B681A68FB681B6842F040021A60FB68AC
:102CEC00DB68B3F5006F4FD1FB685B68002B02D03B
:102CFC00FB8A012B42D1FB681B6B1A88FB681B6893
:102D0C00DA60FB681B6B9A1CFB681A63FB68DB8E32
:102D1C009BB2013B9AB2FB68DA862FE0FB681B681A
:102D2C009B6803F00203022B12D1FB681B6B1A8801
:102D3C00FB681B68DA60FB681B6B9A1CFB681A63E8
:102D4C00FB68DB8E9BB2013B9AB2FB68DA8615E01E
:102D5C00FEF728FC0246BB69D31A3A689A4203D89C
:102D6C003B68B3F1FF3F02D13B68002B06D1032334
:102D7C00FB77FB68012283F851207BE0FB68DB8E3C
:102D8C009BB2002BCAD150E0FB685B68002B02D0D1
:102D9C00FB8A012B44D1FB681A6BFB681B680C3354
:102DAC0012781A70FB681B6B5A1CFB681A63FB6861
:102DBC00DB8E9BB2013B9AB2FB68DA8630E0FB6893
:102DCC001B689B6803F00203022B13D1FB681A6B80
:102DDC00FB681B680C3312781A70FB681B6B5A1C4F
:102DEC00FB681A63FB68DB8E9BB2013B9AB2FB68F3
:102DFC00DA8615E0FEF7D6FB0246BB69D31A3A68B1
:102E0C009A4203D83B68B3F1FF3F02D13B68002BD9
:102E1C0006D10323FB77FB68012283F8512029E0BC
:102E2C00FB68DB8E9BB2002BC9D1BA693968F86894
:102E3C0000F0CCFB0346002B02D0FB6820225A6525
:102E4C00FB689B68002B0AD100233B61FB681B6865
:102E5C00DB683B61FB681B689B683B613B69FB68FB
:102E6C005B6D002B02D00123FB7703E0FB68012292
:102E7C0083F85120FB68002283F85020FB7F184612
:102E8C002037BD4680BD80B588B002AFF860B96010
:102E9C003B601346FB800023FB75FB6893F85130B5
:102EAC00DBB2012B02D00223FB75FBE0FB685B68F5
:102EBC00B3F5827F12D1FB689B68002B0ED1FB68A7
:102ECC00042283F85120FA883B6800931346BA68B1
:102EDC00B968F86800F0EFF80346E8E0FB6893F88F
:102EEC005030012B01D10223E1E0FB68012283F871
:102EFC005020FEF757FB3861BB68002B02D0FB88D3
:102F0C00002B02D10123FB75CCE0FB68042283F873
:102F1C005120FB6800225A65FB68BA689A63FB680B
:102F2C00FA889A87FB68FA88DA87FB6800221A63AA
:102F3C00FB6800229A86FB680022DA86FB68002276
:102F4C001A64FB6800225A64FB689B68B3F5004F57
:102F5C000FD1FB681B681A68FB681B6822F04002E3
:102F6C001A60FB681B681A68FB681B6822F48042B5
:102F7C001A60FB681B681B6803F04003402B07D0EA
:102F8C00FB681B681A68FB681B6842F040021A60F9
:102F9C00FB68DB68002B6AD132E0FB681B689B681E
:102FAC0003F00103012B15D1FB681B6803F10C0224
:102FBC00FB689B6B1278D2B21A70FB689B6B5A1C25
:102FCC00FB689A63FB68DB8F9BB2013B9AB2FB6890
:102FDC00DA8715E0FEF7E6FA02463B69D31A3A683F
:102FEC009A4203D83B68B3F1FF3F02D13B68002BF8
:102FFC0006D10323FB75FB68012283F8512051E0B5
:10300C00FB68DB8F9BB2002BC7D135E0FB681B68DC
:10301C009B6803F00103012B13D1FB681B68DA6872
:10302C00FB689B6B92B21A80FB689B6B9A1CFB68CB
:10303C009A63FB68DB8F9BB2013B9AB2FB68DA8721
:10304C0015E0FEF7AFFA02463B69D31A3A689A428A
:10305C0003D83B68B3F1FF3F02D13B68002B06D18C
:10306C000323FB75FB68012283F851201AE0FB68EF
:10307C00DB8F9BB2002BC9D13A693968F86800F034
:10308C0053FA0346002B02D0FB6820225A65FB68DA
:10309C005B6D002B02D00123FB7503E0FB68012262
:1030AC0083F85120FB68002283F85020FB7D1846E2
:1030BC001837BD4680BD80B58CB000AFF860B960E4
:1030CC007A607B800123FB62002387F82B30FB683E
:1030DC0093F85030012B01D1022398E1FB680122B7
:1030EC0083F85020FEF75EFA7862FB6893F8513053
:1030FC0087F82330FB685B68FB617B887B8397F8E0
:10310C002330012B0FD0FB69B3F5827F07D1FB680D
:10311C009B68002B03D197F82330042B03D0022398
:10312C0087F82B306DE1BB68002B05D07B68002B3A
:10313C0002D07B88002B03D1012387F82B3060E170
:10314C00FB6893F85130DBB2042B03D0FB680522EB
:10315C0083F85120FB6800225A65FB687A689A63F1
:10316C00FB687A88DA87FB687A889A87FB68BA6882
:10317C001A63FB687A88DA86FB687A889A86FB6819
:10318C0000221A64FB6800225A64FB681B681B68E7
:10319C0003F04003402B07D0FB681B681A68FB68E0
:1031AC001B6842F040021A60FB68DB68B3F5006FE5
:1031BC007CD1FB685B68002B02D07B8B012B6AD126
:1031CC00FB681B6B1A88FB681B68DA60FB681B6B5F
:1031DC009A1CFB681A63FB68DB8E9BB2013B9AB2AC
:1031EC00FB68DA8657E0FB681B689B6803F00203F8
:1031FC00022B1BD1FB68DB8E9BB2002B16D0FB6A1B
:10320C00012B13D1FB681B6B1A88FB681B68DA60F7
:10321C00FB681B6B9A1CFB681A63FB68DB8E9BB20A
:10322C00013B9AB2FB68DA860023FB62FB681B68E1
:10323C009B6803F00103012B19D1FB68DB8F9BB258
:10324C00002B14D0FB681B68DA68FB689B6B92B28E
:10325C001A80FB689B6B9A1CFB689A63FB68DB8F7C
:10326C009BB2013B9AB2FB68DA870123FB62FEF743
:10327C0099F902467B6AD31ABA6B9A420BD8BB6B8C
:10328C00B3F1FF3F07D0032387F82B30FB680122F3
:10329C0083F85120B5E0FB68DB8E9BB2002BA2D1EA
:1032AC00FB68DB8F9BB2002B9DD180E0FB685B68D9
:1032BC00002B02D07B8B012B6FD1FB681A6BFB6848
:1032CC001B680C3312781A70FB681B6B5A1CFB685A
:1032DC001A63FB68DB8E9BB2013B9AB2FB68DA8601
:1032EC005BE0FB681B689B6803F00203022B1CD19C
:1032FC00FB68DB8E9BB2002B17D0FB6A012B14D121
:10330C00FB681A6BFB681B680C3312781A70FB682D
:10331C001B6B5A1CFB681A63FB68DB8E9BB2013B70
:10332C009AB2FB68DA860023FB62FB681B689B6819
:10333C0003F00103012B19D1FB68DB8F9BB2002B2F
:10334C0014D0FB681B68DA68FB689B6BD2B21A70EE
:10335C00FB689B6B5A1CFB689A63FB68DB8F9BB208
:10336C00013B9AB2FB68DA870123FB62FEF71AF97C
:10337C0002467B6AD31ABA6B9A4203D8BB6BB3F181
:10338C00FF3F02D1BB6B002B07D1032387F82B30F7
:10339C00FB68012283F8512033E0FB68DB8E9BB283
:1033AC00002B9ED1FB68DB8F9BB2002B99D17A6AE4
:1033BC00B96BF86800F00AF90346002B06D001231C
:1033CC0087F82B30FB6820225A651AE0FB689B6853
:1033DC00002B0AD100237B61FB681B68DB687B61D7
:1033EC00FB681B689B687B617B69FB685B6D002BD2
:1033FC0003D0012387F82B3003E0FB68012283F80C
:10340C005120FB68002283F8502097F82B30184687
:10341C003037BD4680BD000080B588B000AFF86085
:10342C00B9603B601346FB71FEF7BCF80246BB6A01
:10343C009B1A3A681344FB61FEF7B4F8B861394B38
:10344C001B685B011B0DFA6902FB03F37B6154E003
:10345C003B68B3F1FF3F50D0FEF7A4F80246BB69BE
:10346C00D31AFA699A4202D9FB69002B3DD1FB6849
:10347C001B685A68FB681B6822F0E0025A60FB6804
:10348C005B68B3F5827F11D1FB689B68B3F5004F85
:10349C0004D0FB689B68B3F5806F07D1FB681B6891
:1034AC001A68FB681B6822F040021A60FB689B6A72
:1034BC00B3F5005F0FD1FB681B681A68FB681B68CB
:1034CC0022F400521A60FB681B681A68FB681B68C0
:1034DC0042F400521A60FB68012283F85120FB6809
:1034EC00002283F85020032317E07B69002B01D1C5
:1034FC000023FB617B69013B7B61FB681B689A685D
:10350C00BB681340BA689A420CBF01230023DBB29C
:10351C001A46FB799A429BD1002318462037BD46A8
:10352C0080BD00BF1400002080B586B002AFF860EB
:10353C00B9607A60FB685B68B3F5827F11D1FB6878
:10354C009B68B3F5004F04D0FB689B68B3F5806FA4
:10355C0007D1FB681B681A68FB681B6822F04002E5
:10356C001A60FB685B68B3F5827F17D1FB689B68B8
:10357C00B3F5806F12D17B680093BB6800220121E8
:10358C00F868FFF749FF0346002B1AD0FB685B6D08
:10359C0043F02002FB685A65032313E07B68009319
:1035AC00BB6800228021F868FFF736FF0346002B2A
:1035BC0007D0FB685B6D43F02002FB685A65032360
:1035CC0000E0002318461037BD4680BD80B586B09C
:1035DC0002AFF860B9607A607B680093BB68002228
:1035EC008021F868FFF718FF0346002B07D0FB6813
:1035FC005B6D43F02002FB685A65032300E0002357
:10360C0018461037BD4680BD80B582B000AF7860DB
:10361C007B68002B01D1012341E07B6893F83D309E
:10362C00DBB2002B06D17B68002283F83C20786843
:10363C00FDF7A6FD7B68022283F83D207B681A68A3
:10364C007B6804331946104600F0B2FA7B680122FD
:10365C0083F846207B68012283F83E207B68012298
:10366C0083F83F207B68012283F840207B6801228D
:10367C0083F841207B68012283F842207B68012279
:10368C0083F843207B68012283F844207B68012265
:10369C0083F845207B68012283F83D2000231846DF
:1036AC000837BD4680BD80B582B000AF78607B68BE
:1036BC00002B01D1012341E07B6893F83D30DBB254
:1036CC00002B06D17B68002283F83C20786800F040
:1036DC0039F87B68022283F83D207B681A687B6886
:1036EC0004331946104600F063FA7B68012283F814
:1036FC0046207B68012283F83E207B68012283F8F8
:10370C003F207B68012283F840207B68012283F8EC
:10371C0041207B68012283F842207B68012283F8D8
:10372C0043207B68012283F844207B68012283F8C4
:10373C0045207B68012283F83D200023184608377A
:10374C00BD4680BD80B483B000AF786000BF0C373D
:10375C00BD4680BC7047000080B584B000AF786077
:10376C0039603B68002B09D17B6893F83E30DBB2A3
:10377C00012B14BF01230023DBB222E03B68042B96
:10378C0009D17B6893F83F30DBB2012B14BF0123C6
:10379C000023DBB215E03B68082B09D17B6893F85A
:1037AC004030DBB2012B14BF01230023DBB208E055
:1037BC007B6893F84130DBB2012B14BF012300234B
:1037CC00DBB2002B01D001235EE03B68002B04D15F
:1037DC007B68022283F83E2013E03B68042B04D163
:1037EC007B68022283F83F200BE03B68082B04D156
:1037FC007B68022283F8402003E07B68022283F876
:10380C0041207B681B6801223968184600F050FC87
:10381C007B681B681E4A934207D17B681B685A6CF5
:10382C007B681B6842F400425A647B681B68184A28
:10383C0093420ED07B681B68B3F1804F09D07B6834
:10384C001B68144A934204D07B681B68124A93424B
:10385C0011D17B681B689B6803F00703FB60FB6856
:10386C00062B10D07B681B681A687B681B6842F0BB
:10387C0001021A6007E07B681B681A687B681B688A
:10388C0042F001021A60002318461037BD4680BD75
:10389C00002C0140000400400008004080B586B0B8
:1038AC0000AFF860B9607A600023FB75FB6893F891
:1038BC003C30012B01D10223AEE0FB68012283F8DE
:1038CC003C207B680C2B00F29F8001A252F823F065
:1038DC0011390008153A0008153A0008153A000885
:1038EC0051390008153A0008153A0008153A000835
:1038FC0093390008153A0008153A0008153A0008E3
:10390C00D3390008FB681B68B968184600F0B2F997
:10391C00FB681B689A69FB681B6842F008029A6195
:10392C00FB681B689A69FB681B6822F004029A61A9
:10393C00FB681B689969BB681A69FB681B680A43BA
:10394C009A6164E0FB681B68B968184600F0F8F9E6
:10395C00FB681B689A69FB681B6842F400629A61F9
:10396C00FB681B689A69FB681B6822F480629A6189
:10397C00FB681B689969BB681B691A02FB681B68AA
:10398C000A439A6143E0FB681B68B968184600F06B
:10399C0041FAFB681B68DA69FB681B6842F0080295
:1039AC00DA61FB681B68DA69FB681B6822F00402A9
:1039BC00DA61FB681B68D969BB681A69FB681B680C
:1039CC000A43DA6123E0FB681B68B968184600F00B
:1039DC008BFAFB681B68DA69FB681B6842F40062AF
:1039EC00DA61FB681B68DA69FB681B6822F4806289
:1039FC00DA61FB681B68D969BB681B691A02FB6832
:103A0C001B680A43DA6102E00123FB7500BFFB6807
:103A1C00002283F83C20FB7D18461837BD4680BD3C
:103A2C0080B584B000AF786039600023FB737B688D
:103A3C0093F83C30012B01D10223B4E07B680122C6
:103A4C0083F83C207B68022283F83D207B681B684E
:103A5C009B68BB60BB6823F07703BB60BB6823F437
:103A6C007F43BB607B681B68BA689A603B681B68C5
:103A7C00B3F5005F3ED0B3F5005F00F28780B3F57D
:103A8C00805F00F08680B3F5805F7FD8702B1AD0F2
:103A9C00702B7BD8602B50D0602B77D8502B3CD020
:103AAC00502B73D8402B58D0402B6FD8302B64D070
:103ABC00302B6BD8202B60D0202B67D8002B5CD000
:103ACC00102B5AD062E07B6818683B6899683B6899
:103ADC005A683B68DB6800F0CCFA7B681B689B6813
:103AEC00BB60BB6843F07703BB607B681B68BA683C
:103AFC009A604FE07B6818683B6899683B685A6825
:103B0C003B68DB6800F0B5FA7B681B689A687B68D9
:103B1C001B6842F480429A603CE07B6818683B6802
:103B2C0059683B68DB681A4600F02CFA7B681B6806
:103B3C005021184600F083FA2CE07B6818683B682B
:103B4C0059683B68DB681A4600F04AFA7B681B68C8
:103B5C006021184600F073FA1CE07B6818683B681B
:103B6C0059683B68DB681A4600F00CFA7B681B68E6
:103B7C004021184600F063FA0CE07B681A683B6839
:103B8C001B681946104600F05AFA03E00123FB7338
:103B9C0000E000BF7B68012283F83D207B68002297
:103BAC0083F83C20FB7B18461037BD4680BD0000D7
:103BBC0080B485B000AF786039607B681B68FB60AF
:103BCC007B68294A93420BD07B68B3F1804F07D0B6
:103BDC007B68264A934203D07B68254A934208D1DE
:103BEC00FB6823F07003FB603B685B68FA68134367
:103BFC00FB607B681C4A93420BD07B68B3F1804F0F
:103C0C0007D07B68194A934203D07B68184A9342C9
:103C1C0008D1FB6823F44073FB603B68DB68FA68EF
:103C2C001343FB60FB6823F080023B685B69134322
:103C3C00FB607B68FA681A603B689A687B68DA629A
:103C4C003B681A687B689A627B68074A934203D187
:103C5C003B681A697B681A637B6801225A6100BF52
:103C6C001437BD4680BC7047002C01400004004056
:103C7C000008004080B487B000AF786039607B6882
:103C8C001B6A7B617B681B6A23F001027B681A62EA
:103C9C007B685B683B617B689B69FB60FB6823F01E
:103CAC007003FB60FB6823F00303FB603B681B683D
:103CBC00FA681343FB607B6923F002037B613B686A
:103CCC009B687A6913437B617B681C4A93420CD1D5
:103CDC007B6923F008037B613B68DB687A691343DB
:103CEC007B617B6923F004037B617B68134A9342FD
:103CFC0011D13B6923F480733B613B6923F400735E
:103D0C003B613B685B693A6913433B613B689B6968
:103D1C003A6913433B617B683A695A607B68FA687D
:103D2C009A613B685A687B685A637B687A691A6245
:103D3C0000BF1C37BD4680BC704700BF002C014043
:103D4C0080B487B000AF786039607B681B6A7B6198
:103D5C007B681B6A23F010027B681A627B685B68C5
:103D6C003B617B689B69FB60FB6823F4E043FB6071
:103D7C00FB6823F44073FB603B681B681B02FA680A
:103D8C001343FB607B6923F020037B613B689B68DA
:103D9C001B017A6913437B617B681D4A93420DD1E9
:103DAC007B6923F080037B613B68DB681B017A69CC
:103DBC0013437B617B6923F040037B617B68144A6E
:103DCC00934213D13B6923F480633B613B6923F439
:103DDC0000633B613B685B699B003A6913433B6141
:103DEC003B689B699B003A6913433B617B683A696A
:103DFC005A607B68FA689A613B685A687B689A6378
:103E0C007B687A691A6200BF1C37BD4680BC70475C
:103E1C00002C014080B487B000AF786039607B68BB
:103E2C001B6A7B617B681B6A23F480727B681A6255
:103E3C007B685B683B617B68DB69FB60FB6823F03C
:103E4C007003FB60FB6823F00303FB603B681B689B
:103E5C00FA681343FB607B6923F400737B613B6856
:103E6C009B681B027A6913437B617B681D4A9342F2
:103E7C000DD17B6923F400637B613B68DB681B021B
:103E8C007A6913437B617B6923F480637B617B6874
:103E9C00144A934213D13B6923F480533B613B6931
:103EAC0023F400533B613B685B691B013A69134384
:103EBC003B613B689B691B013A6913433B617B681F
:103ECC003A695A607B68FA68DA613B685A687B68C1
:103EDC00DA637B687A691A6200BF1C37BD4680BC06
:103EEC00704700BF002C014080B487B000AF7860F1
:103EFC0039607B681B6A3B617B681B6A23F48052C8
:103F0C007B681A627B685B687B617B68DB69FB6042
:103F1C00FB6823F4E043FB60FB6823F44073FB6015
:103F2C003B681B681B02FA681343FB603B6923F474
:103F3C0000533B613B689B681B033A6913433B612D
:103F4C007B680F4A934209D17B6923F480437B61E0
:103F5C003B685B699B017A6913437B617B687A6977
:103F6C005A607B68FA68DA613B685A687B681A6445
:103F7C007B683A691A6200BF1C37BD4680BC70472B
:103F8C00002C014080B487B000AFF860B9607A6053
:103F9C00FB681B6A7B61FB681B6A23F00102FB68F0
:103FAC001A62FB689B693B613B6923F0F0033B6140
:103FBC007B681B013A6913433B617B6923F00A035D
:103FCC007B617A69BB6813437B61FB683A699A61D0
:103FDC00FB687A691A6200BF1C37BD4680BC70470B
:103FEC0080B487B000AFF860B9607A60FB681B6A78
:103FFC007B61FB681B6A23F01002FB681A62FB688A
:10400C009B693B613B6923F470433B617B681B03F9
:10401C003A6913433B617B6923F0A0037B61BB6866
:10402C001B017A6913437B61FB683A699A61FB68EF
:10403C007A691A6200BF1C37BD4680BC704780B4D9
:10404C0085B000AF786039607B689B68FB60FB686B
:10405C0023F07003FB603A68FB68134343F00703DB
:10406C00FB607B68FA689A6000BF1437BD4680BC61
:10407C00704780B487B000AFF860B9607A603B607D
:10408C00FB689B687B617B6923F47F437B613B68A6
:10409C001A027B681A43BB6813437A6913437B612A
:1040AC00FB687A699A6000BF1C37BD4680BC7047BC
:1040BC0080B487B000AFF860B9607A60BB6803F079
:1040CC001F03012202FA03F37B61FB681A6A7B6906
:1040DC00DB431A40FB681A62FB681A6ABB6803F080
:1040EC001F03796801FA03F31A43FB681A6200BFD5
:1040FC001C37BD4680BC704780B485B000AF78607B
:10410C0039607B6893F83C30012B01D1022346E0E7
:10411C007B68012283F83C207B68022283F83D20D7
:10412C007B681B685B68FB607B681B689B68BB607B
:10413C00FB6823F07003FB603B681B68FA68134351
:10414C00FB607B681B68FA685A607B681B68164AC0
:10415C0093420ED07B681B68B3F1804F09D07B680B
:10416C001B68124A934204D07B681B68104A934226
:10417C000CD1BB6823F08003BB603B685B68BA68FA
:10418C001343BB607B681B68BA689A607B6801222A
:10419C0083F83D207B68002283F83C2000231846DE
:1041AC001437BD4680BC7047002C01400004004011
:1041BC000008004080B582B000AF78607B68002BAF
:1041CC0001D1012342E07B6893F84130DBB2002B34
:1041DC0006D17B68002283F840207868FDF76AF8E6
:1041EC007B68242283F841207B681B68DA687B6833
:1041FC001B6822F40052DA60786800F071FD7B686D
:10420C001B681A697B681B6822F490421A617B68F0
:10421C001B685A697B681B6822F02A025A617B680A
:10422C001B68DA687B681B6842F40052DA607B68B2
:10423C0000225A647B68202283F841207B6820226C
:10424C0083F842207B6800225A6300231846083703
:10425C00BD4680BD80B58AB002AFF860B9603B60E6
:10426C001346FB8000237B61FB6893F84130DBB283
:10427C00202B6DD1BB68002B02D0FB88002B01D109
:10428C00012366E0FB6800225A64FB68212283F854
:10429C004120FDF787F97861FB68FA889A84FB68FE
:1042AC00FA88DA84FB689B68B3F5805F08D1FB68F9
:1042BC001B69002B04D10023FB61BB68BB6103E0CD
:1042CC00BB68FB610023BB612AE03B6800937B6900
:1042DC0000228021F86800F0F9FA0346002B01D087
:1042EC00032336E0FB69002B0BD1BB691B881A46F4
:1042FC00FB681B68C2F308025A60BB690233BB61DE
:10430C0007E0FB691A78FB681B685A60FB6901338C
:10431C00FB61FB68DB8C9BB2013B9AB2FB68DA84D5
:10432C00FB68DB8C9BB2002BCFD13B6800937B6985
:10433C0000224021F86800F0C9FA0346002B01D096
:10434C00032306E0FB68202283F84120002300E0D1
:10435C00022318462037BD4680BD000080B5BAB098
:10436C0000AF78607B681B681B68C7F8E4307B681B
:10437C001B68DB68C7F8E0307B681B685B69C7F8B3
:10438C00DC300023C7F8D8300023C7F8D430D7F876
:10439C00E43003F00F03C7F8D830D7F8D830002B2F
:1043AC000FD1D7F8E43003F02003002B09D0D7F855
:1043BC00E03003F02003002B03D0786800F0D1FB31
:1043CC005BE2D7F8D830002B00F0DE80D7F8DC3079
:1043DC0003F00103002B06D1D7F8E03003F49073FF
:1043EC00002B00F0D180D7F8E43003F00103002B50
:1043FC000BD0D7F8E03003F48073002B05D07B682A
:10440C005B6C43F001027B685A64D7F8E43003F02C
:10441C000403002B0BD0D7F8DC3003F00103002B86
:10442C0005D07B685B6C43F002027B685A64D7F85A
:10443C00E43003F00203002B0BD0D7F8DC3003F090
:10444C000103002B05D07B685B6C43F004027B6896
:10445C005A64D7F8E43003F00803002B11D0D7F8D6
:10446C00E03003F02003002B05D1D7F8DC3003F04B
:10447C000103002B05D07B685B6C43F008027B6862
:10448C005A647B685B6C002B00F0F281D7F8E43047
:10449C0003F02003002B08D0D7F8E03003F0200302
:1044AC00002B02D0786800F05CFB7B681B685B69B2
:1044BC0003F04003002B14BF01230023DBB2C7F829
:1044CC00D4307B685B6C03F00803002B03D1D7F866
:1044DC00D430002B4FD0786800F066FA7B681B68EC
:1044EC005B6903F04003002B41D07B681B681433DD
:1044FC00C7F89C30D7F89C3053E8003FC7F8983089
:10450C00D7F8983023F04003C7F8D0307B681B688D
:10451C001433D7F8D020C7F8A820C7F8A430D7F8A0
:10452C00A410D7F8A82041E80023C7F8A030D7F88A
:10453C00A030002BD9D17B68DB6B002B13D07B68B0
:10454C00DB6B7E4A5A637B68DB6B1846FDF7B2FB6C
:10455C000346002B16D07B68DB6B5B6B7A68D26BE7
:10456C00104698470EE0786800F09CF90AE07868ED
:10457C0000F098F906E0786800F094F97B68002266
:10458C005A6475E100BF73E17B681B6B012B40F033
:10459C004F81D7F8E43003F01003002B00F0488172
:1045AC00D7F8E03003F01003002B00F0418100231A
:1045BC00BB607B681B681B68BB607B681B685B68A7
:1045CC00BB60BB687B681B685B6903F04003002B16
:1045DC0000F0B6807B68DB6B1B685B68A7F8BE30AD
:1045EC00B7F8BE30002B00F045817B689B8DB7F887
:1045FC00BE209A4280F03E817B68B7F8BE20DA85F7
:10460C007B68DB6B9B69202B00F088807B681B68C8
:10461C000C33C7F88830D7F8883053E8003FC7F818
:10462C008430D7F8843023F48073C7F8B8307B68B3
:10463C001B680C33D7F8B820C7F89420C7F8903013
:10464C00D7F89010D7F8942041E80023C7F88C30A5
:10465C00D7F88C30002BD9D17B681B6814337B675F
:10466C007B6F53E8003F3B673B6F23F00103C7F8B8
:10467C00B4307B681B681433D7F8B420C7F880209B
:10468C00FB67F96FD7F8802041E80023BB67BB6F4D
:10469C00002BE1D17B681B6814333B663B6E53E8FF
:1046AC00003FFB65FB6D23F04003C7F8B0307B681F
:1046BC001B681433D7F8B020FA66BB66B96EFA6E75
:1046CC0041E800237B667B6E002BE3D17B682022C4
:1046DC0083F842207B6800221A637B681B680C33CA
:1046EC00FB64FB6C53E8003FBB64BB6C23F0100312
:1046FC00C7F8AC307B681B680C33D7F8AC20BA65B4
:10470C007B65796DBA6D41E800233B653B6D002BF1
:10471C00E3D17B68DB6B1846FDF791FA7B680222CC
:10472C005A637B689A8D7B68DB8D9BB2D31A9BB2E4
:10473C001946786800F0BFF89CE000BF794A000881
:10474C007B689A8D7B68DB8D9BB2D31AA7F8CE3031
:10475C007B68DB8D9BB2002B00F08E80B7F8CE30DF
:10476C00002B00F089807B681B680C33BB63BB6B30
:10477C0053E8003F7B637B6B23F49073C7F8C8301E
:10478C007B681B680C33D7F8C8207A643B64396C9F
:10479C007A6C41E80023FB63FB6B002BE3D17B6855
:1047AC001B6814337B627B6A53E8003F3B623B6AB5
:1047BC0023F00103C7F8C4307B681B681433D7F8A7
:1047CC00C4203A63FB62F96A3A6B41E80023BB628E
:1047DC00BB6A002BE3D17B68202283F842207B68E4
:1047EC0000221A637B681B680C333B613B6953E8FE
:1047FC00003FFB60FB6823F01003C7F8C0307B68F8
:10480C001B680C33D7F8C020FA61BB61B969FA692F
:10481C0041E800237B617B69002BE3D17B6802229A
:10482C005A63B7F8CE301946786800F044F823E0A4
:10483C00D7F8E43003F08003002B09D0D7F8E03030
:10484C0003F08003002B03D0786800F023F914E008
:10485C00D7F8E43003F04003002B0ED0D7F8E0304B
:10486C0003F04003002B08D0786800F062F904E0F4
:10487C0000BF02E000BF00E000BFE837BD4680BDCE
:10488C0080B483B000AF786000BF0C37BD4680BCED
:10489C00704780B483B000AF786000BF0C37BD4662
:1048AC0080BC704780B483B000AF786000BF0C3719
:1048BC00BD4680BC704780B483B000AF78600B46B7
:1048CC007B8000BF0C37BD4680BC704780B590B074
:1048DC0000AFF860B9603B601346FB7150E0BB6CF5
:1048EC00B3F1FF3F4CD0BB6C002B07D0FCF75AFE4A
:1048FC0002463B68D31ABA6C9A4241D2FB681B68D9
:10490C000C33BB62BB6A53E8003F7B627B6A23F4C7
:10491C00D073FB63FB681B680C33FA6B7A633B63E5
:10492C00396B7A6B41E80023FB62FB6A002BE5D103
:10493C00FB681B6814337B617B6953E8003F3B6168
:10494C003B6923F00103BB63FB681B681433BA6B30
:10495C003A62FB61F9693A6A41E80023BB61BB69C1
:10496C00002BE5D1FB68202283F84120FB68202234
:10497C0083F84220FB68002283F8402003230FE0D9
:10498C00FB681B681A68BB681340BA689A420CBF74
:10499C0001230023DBB21A46FB799A429FD00023F5
:1049AC0018464037BD4680BD80B495B000AF7860E6
:1049BC007B681B680C337B637B6B53E8003F3B636A
:1049CC003B6B23F49073FB647B681B680C33FA6CB1
:1049DC003A64FB63F96B3A6C41E80023BB63BB6B35
:1049EC00002BE5D17B681B6814333B623B6A53E8B0
:1049FC00003FFB61FB6923F00103BB647B681B6810
:104A0C001433BA6CFA62BB62B96AFA6A41E80023E1
:104A1C007B627B6A002BE5D17B681B6B012B19D168
:104A2C007B681B680C33FB60FB6853E8003FBB6082
:104A3C00BB6823F010037B647B681B680C337A6CB7
:104A4C00BA617B617969BA6941E800233B613B69D2
:104A5C00002BE5D17B68202283F842207B68002262
:104A6C001A6300BF5437BD4680BC704780B584B014
:104A7C0000AF78607B685B6AFB60FB680022DA85BC
:104A8C00FB680022DA84F868FFF70CFF00BF1037D0
:104A9C00BD4680BD80B485B000AF78607B6893F86C
:104AAC004130DBB2212B3ED17B689B68B3F5805F34
:104ABC0014D17B681B69002B10D17B681B6AFB60CF
:104ACC00FB681B881A467B681B68C2F308025A6095
:104ADC007B681B6A9A1C7B681A6208E07B681B6AFD
:104AEC00591C7A6811621A787B681B685A607B685B
:104AFC00DB8C9BB2013B9BB27A681946D184002BAC
:104B0C000FD17B681B68DA687B681B6822F0800217
:104B1C00DA607B681B68DA687B681B6842F04002CD
:104B2C00DA60002300E0022318461437BD4680BC2F
:104B3C00704780B582B000AF78607B681B68DA681C
:104B4C007B681B6822F04002DA607B68202283F8C5
:104B5C0041207868FFF794FE002318460837BD46BD
:104B6C0080BD80B58CB000AF78607B6893F8423024
:104B7C00DBB2222B40F0AE807B689B68B3F5805F84
:104B8C0017D17B681B69002B13D10023FB627B6858
:104B9C009B6ABB627B681B685B689BB2C3F30803B0
:104BAC009AB2BB6A1A807B689B6A9A1C7B689A6271
:104BBC0026E07B689B6AFB620023BB627B689B6878
:104BCC00B3F5805F07D07B689B68002B0AD17B68AC
:104BDC001B69002B06D17B681B685B68DAB2FB6A29
:104BEC001A7008E07B681B685B68DBB203F07F031C
:104BFC00DAB2FB6A1A707B689B6A5A1C7B689A62F1
:104C0C007B68DB8D9BB2013B9BB27A681946D185E0
:104C1C00002B5DD17B681B68DA687B681B6822F00F
:104C2C002002DA607B681B68DA687B681B6822F4F8
:104C3C008072DA607B681B685A697B681B6822F09B
:104C4C0001025A617B68202283F842207B68002293
:104C5C005A637B681B6B012B35D17B6800221A636E
:104C6C007B681B680C337B617B6953E8003F3B61BD
:104C7C003B6923F010037B627B681B680C337A6AF8
:104C8C003A62FB61F9693A6A41E80023BB61BB698E
:104C9C00002BE5D17B681B681B6803F01003102BFD
:104CAC000AD10023FB607B681B681B68FB607B6878
:104CBC001B685B68FB60FB687B689B8D194678689A
:104CCC00FFF7F9FD02E07868FFF7E3FD002302E04F
:104CDC00002300E0022318463037BD4680BD00009B
:104CEC0080B584B000AF78607B681B681B6923F4C7
:104CFC0040517B68DA687B681B680A431A617B68E1
:104D0C009A687B681B691A437B685B691343BB60B9
:104D1C007B681B68DB6823F4B05323F00C037A68C0
:104D2C001268B9680B43D3607B681B685B6923F41A
:104D3C0040717B689A697B681B680A435A617B687F
:104D4C001B682C4A934203D1FDF7EEFDF86002E09C
:104D5C00FDF7D6FDF860FA6813469B0013449A00E1
:104D6C001A447B685B689B00B2FBF3F3224AA2FBFC
:104D7C0003235B091901FA6813469B0013449A003C
:104D8C001A447B685B689B00B2FBF3F21A4BA3FBE3
:104D9C0002035B09642000FB03F3D31A1B013233BB
:104DAC00154AA2FB03235B0903F0F0031944FA68CC
:104DBC0013469B0013449A001A447B685B689B0063
:104DCC00B2FBF3F20C4BA3FB02035B09642000FB68
:104DDC0003F3D31A1B013233074AA2FB03235B09EB
:104DEC0003F00F027B681B680A449A6000BF1037FF
:104DFC00BD4680BD003801401F85EB5180B500AF2A
:104E0C00012208210248FDF768F900BF80BD00BFF0
:104E1C000008014080B500AF002208210248FDF7D0
:104E2C005CF900BF80BD00BF0008014080B500AF39
:104E3C00012210210248FDF750F900BF80BD00BFD0
:104E4C000008014080B500AF002210210248FDF798
:104E5C0044F900BF80BD00BF0008014080B586B09A
:104E6C0002AF0346FB71FB79FB73FFF7D3FF07F12E
:104E7C000E0207F10F014FF4FA6300930123094866
:104E8C00FEF719F907F10D014FF4FA6301220548F9
:104E9C00FDF7F9FFFFF7B2FF7B7B18461037BD46D5
:104EAC0080BD00BF6C00002080B586B002AF034609
:104EBC000A46FB711346BB71FB7943F02003DBB24E
:104ECC00FB73BB797B73FFF7A5FF07F10E0207F1AC
:104EDC000F014FF4FA63009301230948FEF7EBF836
:104EEC0007F10D014FF4FA6301220548FDF788FE26
:104EFC00FFF784FF7B7B18461037BD4680BD00BF93
:104F0C006C00002080B586B002AF03463960FB719F
:104F1C00FB7943F02003DBB2BB730023FB730BE084
:104F2C00FB7B3A681A44FB7B127810333B4403F842
:104F3C00082CFB7B0133FB73FB7B042BF0D9FFF7B5
:104F4C0069FF07F10D0207F10E014FF4FA630093AC
:104F5C0001230848FEF7AFF807F108014FF4FA6394
:104F6C0005220448FDF74CFEFFF748FF00BF103741
:104F7C00BD4680BD6C00002080B584B000AFBA6027
:104F8C007B600346FB810B467B7300F044F800F01A
:104F9C0092F800F077F9202000F052F9FB891846BE
:104FAC0000F0FCF97B7B184600F028FA032000F097
:104FBC0008FA012000F07BF9052000F09BF9B96894
:104FCC000A20FFF79FFF79681020FFF79BFF032053
:104FDC0000F0A0F9FA2000F0B9F9FFF727FF00BFA5
:104FEC001037BD4680BD80B582B000AF7860786860
:104FFC0000F094F800F032F900BF0837BD4680BDD0
:10500C0080B582B000AF7860786800F0ABF800BF74
:10501C000837BD4680BD80B500AFFFF7EFFEFFF748
:10502C0011FF08210020FFF73FFF3F210120FFF770
:10503C003BFF03210220FFF737FF03210320FFF77B
:10504C0033FF03210420FFF72FFF02210520FFF778
:10505C002BFF07210620FFF727FF7E210720FFF7F4
:10506C0023FF20211120FFF71FFF20211220FFF723
:10507C001BFF00211320FFF717FF00211420FFF75F
:10508C0013FF00211520FFF70FFF00211620FFF75B
:10509C000BFF11211720FFF707FF00211C20FFF742
:1050AC0003FF00211D20FFF7FFFE00F07FF800F04A
:1050BC0095F800BF80BD80B582B000AFFFF7C2FE8F
:1050CC000020FFF7CBFE0346FB71FB7943F0010395
:1050DC00FB71FB7919460020FFF7E6FEFFF7A6FEF1
:1050EC0000BF0837BD4680BD80B582B000AFFFF76A
:1050FC00A9FE0020FFF7B2FE0346FB71FB7923F0FB
:10510C000103FB71FB7919460020FFF7CDFEFFF779
:10511C008DFE00BF0837BD4680BD000080B586B04F
:10512C0002AF78606123FB73FFF774FE07F10E0288
:10513C0007F10F014FF4FA63009301230848FDF7C0
:10514C00BAFF4FF4FA63202279680548FDF79BFEFD
:10515C00FFF754FEBB7B18461037BD4680BD00BF21
:10516C006C00002080B586B002AF7860A023FB7382
:10517C00FFF750FE07F10E0207F10F014FF4FA632F
:10518C00009301230848FDF796FF4FF4FA632022A1
:10519C0079680548FDF734FDFFF730FEBB7B1846F8
:1051AC001037BD4680BD00BF6C00002080B584B0B8
:1051BC0002AFE223FB71FFF72DFEBA1DF91D4FF470
:1051CC00FA63009301230448FDF775FFFFF716FE01
:1051DC0000BF0837BD4680BD6C00002080B584B090
:1051EC0002AFE123FB71FFF715FEBA1DF91D4FF459
:1051FC00FA63009301230448FDF75DFFFFF7FEFD02
:10520C0000BF0837BD4680BD6C00002080B584B05F
:10521C0002AFFF23FB71FFF7FDFDBA1DF91D4FF423
:10522C00FA63009301230548FDF745FFFFF7E6FD00
:10523C00BB7918460837BD4680BD00BF6C00002006
:10524C0080B582B000AF0346FB71FB791946112083
:10525C00FFF72AFE00BF0837BD4680BD80B582B07F
:10526C0000AFFFF7D3FF0346FB71FB7943F040031C
:10527C00FB71FB7919460720FFF716FE00BF0837B4
:10528C00BD4680BD80B582B000AF0020FFF7E6FDC3
:10529C000346FB71FB7943F00203FB71FB79194662
:1052AC000020FFF701FE00BF0837BD4680BD80B56A
:1052BC0084B000AF0346FB710020FFF7CFFD03461F
:1052CC00FB73FB79012B02D0022B05D009E0FB7B91
:1052DC0023F00403FB7304E0FB7B43F00403FB7338
:1052EC0000BFFB7B19460020FFF7DEFD00BF103727
:1052FC00BD4680BD80B582B000AF0346FB71FB7923
:10530C00023BDBB219460320FFF7CEFD00BF083786
:10531C00BD4680BD80B584B000AF0346FB71042050
:10532C00FFF79CFD0346FB73FB7B63F00F03FB73E2
:10533C00FA7BFB791343FB73FB7B19460420FFF7C5
:10534C00B3FD00BF1037BD4680BD000080B584B0F2
:10535C0000AF0346FB800420FFF780FD0346FB7380
:10536C00FB7B43F00F03FB73FB880B4AA2FB03236D
:10537C001B099BB2013B1B015AB297F90F30134327
:10538C005BB2FB73FB7B19460420FFF78DFD00BF5E
:10539C001037BD4680BD00BFD34D621080B584B0C0
:1053AC0000AF0346FB80FB88A3F51663FB81FB89EA
:1053BC00DBB219460520FFF777FD00BF1037BD465D
:1053CC0080BD80B584B000AF0346FB710620FFF7AB
:1053DC0045FD034623F00603FB73FB795B005AB2D1
:1053EC0097F90F3013435BB2FB73FB7B1946062016
:1053FC00FFF75AFD00BF1037BD4680BD80B584B0A5
:10540C0000AF0346FB710620FFF728FD034623F08F
:10541C002803FB73FB79022B0AD0022B0EDC002B2A
:10542C000BD0012B0AD1FB7B43F00803FB7305E087
:10543C00FB7B43F02003FB7300E000BFFB7B1946B2
:10544C000620FFF731FD00BF1037BD4680BD034677
:10545C000244934200D1704703F8011BF9E70000A6
:10546C0070B500260C4D0D4C641BA410A64209D13E
:10547C0000F01AF800260A4D0A4C641BA410A64230
:10548C0005D170BD55F8043B98470136EEE755F849
:10549C00043B98470136F2E7F8540008F85400082A
:1054AC00F8540008FC540008F8B500BFF8BC08BC60
:1054BC009E467047F8B500BFF8BC08BC9E467047C6
:1054CC0000000000000000000102030406070809A8
:1054DC00000000000102030402030405060708098A
:0C54EC000A0B0C0D0E0F10100102000046
:0454F8003101000876
:0454FC000D01000896
:105500006E3030306E6F6465300000006E6F646521
:10551000310000000024F400100000000100000031
:04000005080014B526
:00000001FF
