:020000040800F2
:1000000000500020391F0008211C0008291C00088E
:10001000311C0008391C0008411C000800000000C9
:10002000000000000000000000000000491C000863
:10003000551C000800000000611C00086D1C000831
:10004000811F0008811F0008811F0008811F000810
:10005000811F0008811F0008811F0008811F000800
:10006000791C0008811F0008811F0008811F0008FB
:10007000811F0008811F0008811F0008811F0008E0
:10008000811F0008811F0008811F0008811F0008D0
:10009000811F0008811F0008811F0008811F0008C0
:1000A000811F0008811F0008811F0008811F0008B0
:1000B000811F0008811F0008811F0008811F0008A0
:1000C000811F0008811F0008811F0008811F000890
:1000D000811F0008891C0008811F0008811F00087B
:1000E000811F0008811F0008811F00080000000018
:1000F0000000000000000000000000000000000000
:0C01000000000000000000005FF808F1A3
:1001100010B5054C237833B9044B13B10448AFF341
:1001200000800123237010BDFC01002000000000AE
:1001300090A8000808B5034B1BB103490348AFF36F
:10014000008008BD000000000002002090A8000808
:10015000034613F8012B002AFBD1181A0138704707
:1001600081F0004102E000BF83F0004330B54FEA68
:1001700041044FEA430594EA050F08BF90EA020FD5
:100180001FBF54EA000C55EA020C7FEA645C7FEA68
:10019000655C00F0E2804FEA5454D4EB5555B8BF8B
:1001A0006D420CDD2C4480EA020281EA030382EAFC
:1001B000000083EA010180EA020281EA0303362D8E
:1001C00088BF30BD11F0004F4FEA01314FF4801C61
:1001D0004CEA113102D0404261EB410113F0004F73
:1001E0004FEA03334CEA133302D0524263EB43032A
:1001F00094EA050F00F0A780A4F10104D5F1200EC8
:100200000DDB02FA0EFC22FA05F2801841F1000122
:1002100003FA0EF2801843FA05F359410EE0A5F1F6
:1002200020050EF1200E012A03FA0EFC28BF4CF027
:10023000020C43FA05F3C01851EBE37101F00045DD
:1002400007D54FF0000EDCF1000C7EEB00006EEBEA
:100250000101B1F5801F1BD3B1F5001F0CD3490874
:100260005FEA30004FEA3C0C04F101044FEA4452CB
:1002700012F5800F80F09A80BCF1004F08BF5FEA52
:10028000500C50F1000041EB045141EA050130BD32
:100290005FEA4C0C404141EB0101013C28BFB1F544
:1002A000801FE9D291F0000F04BF01460020B1FA8F
:1002B00081F308BF2033A3F10B03B3F120020CDA62
:1002C0000C3208DD02F1140CC2F10C0201FA0CF040
:1002D00021FA02F10CE002F11402D8BFC2F1200CA5
:1002E00001FA02F120FA0CFCDCBF41EA0C0190405B
:1002F000E41AA2BF01EB0451294330BD6FEA0404A4
:100300001F3C1CDA0C340EDC04F11404C4F120028E
:1003100020FA04F001FA02F340EA030021FA04F3A0
:1003200045EA030130BDC4F10C04C4F1200220FAF7
:1003300002F001FA04F340EA0300294630BD21FA35
:1003400004F0294630BD94F0000F83F4801306BFFB
:1003500081F480110134013D4EE77FEA645C18BFEF
:100360007FEA655C29D094EA050F08BF90EA020F86
:1003700005D054EA000C04BF1946104630BD91EA7E
:10038000030F1EBF0021002030BD5FEA545C05D181
:100390004000494128BF41F0004130BD14F58004C0
:1003A0003CBF01F5801130BD01F0004545F0FE4134
:1003B00041F470014FF0000030BD7FEA645C1ABF69
:1003C000194610467FEA655C1CBF0B46024650EAA0
:1003D000013406BF52EA033591EA030F41F40021CC
:1003E00030BD00BF90F0000F04BF0021704730B552
:1003F0004FF4806404F132044FF000054FF0000127
:1004000050E700BF90F0000F04BF0021704730B5E7
:100410004FF4806404F1320410F0004548BF4042BC
:100420004FF000013EE700BF42004FEAE2014FEA11
:1004300031014FEA02701FBF12F07F4393F07F4FEC
:1004400081F06051704732F07F4208BF704793F0EF
:100450007F4F04BF41F40021704730B54FF4607402
:1004600001F0004521F000411CE700BF50EA010205
:1004700008BF704730B54FF000050AE050EA0102AE
:1004800008BF704730B511F0004502D5404261EB1E
:1004900041014FF4806404F132045FEA915C3FF45F
:1004A000D8AE4FF003025FEADC0C18BF03325FEAFC
:1004B000DC0C18BF033202EBDC02C2F1200300FAAD
:1004C00003FC20FA02F001FA03FE40EA0E0021FAD2
:1004D00002F11444BDE600BF70B54FF0FF0C4CF4C0
:1004E000E06C1CEA11541DBF1CEA135594EA0C0F72
:1004F00095EA0C0F00F0DEF82C4481EA030621EAAD
:100500004C5123EA4C5350EA013518BF52EA0335E7
:1005100041F4801143F4801338D0A0FB02CE4FF099
:100520000005E1FB02E506F00042E0FB03E54FF0C9
:100530000006E1FB03569CF0000F18BF4EF0010EC1
:10054000A4F1FF04B6F5007F64F5407404D25FEABD
:100550004E0E6D4146EB060642EAC62141EA555170
:100560004FEAC52040EA5E504FEACE2EB4F1FD0CB2
:1005700088BFBCF5E06F1ED8BEF1004F08BF5FEA30
:10058000500E50F1000041EB045170BD06F00046E2
:1005900046EA010140EA020081EA0301B4EB5C048F
:1005A000C2BFD4EB0C0541EA045170BD41F4801187
:1005B0004FF0000E013C00F3AB8014F1360FDEBFAC
:1005C000002001F0004170BDC4F10004203C35DA88
:1005D0000C341BDC04F11404C4F1200500FA05F30B
:1005E00020FA04F001FA05F240EA020001F00042AC
:1005F00021F0004110EBD37021FA04F642EB060122
:100600005EEA430E08BF20EAD37070BDC4F10C044B
:10061000C4F1200500FA04F320FA05F001FA04F20F
:1006200040EA020001F0004110EBD37041F10001FB
:100630005EEA430E08BF20EAD37070BDC4F1200506
:1006400000FA05F24EEA020E20FA04F301FA05F26E
:1006500043EA020321FA04F001F0004121FA04F216
:1006600020EA020000EBD3705EEA430E08BF20EAE6
:10067000D37070BD94F0000F0FD101F00046400020
:1006800041EB010111F4801F08BF013CF7D041EAA2
:10069000060195F0000F18BF704703F000465200A6
:1006A00043EB030313F4801F08BF013DF7D043EA77
:1006B0000603704794EA0C0F0CEA135518BF95EA2D
:1006C0000C0F0CD050EA410618BF52EA4306D1D1B4
:1006D00081EA030101F000414FF0000070BD50EAD3
:1006E000410606BF1046194652EA430619D094EA5D
:1006F0000C0F02D150EA013613D195EA0C0F05D147
:1007000052EA03361CBF104619460AD181EA03019A
:1007100001F0004141F0FE4141F470014FF0000052
:1007200070BD41F0FE4141F4780170BD70B54FF0ED
:10073000FF0C4CF4E06C1CEA11541DBF1CEA13556D
:1007400094EA0C0F95EA0C0F00F0A7F8A4EB05044F
:1007500081EA030E52EA03354FEA013100F0888046
:100760004FEA03334FF0805545EA131343EA12630F
:100770004FEA022245EA111545EA10654FEA0026C4
:100780000EF000419D4208BF964244F1FD0404F57D
:10079000407402D25B084FEA3202B61A65EB0305D9
:1007A0005B084FEA32024FF480104FF4002CB6EB96
:1007B000020E75EB030E22BFB61A754640EA0C0016
:1007C0005B084FEA3202B6EB020E75EB030E22BF56
:1007D000B61A754640EA5C005B084FEA3202B6EB97
:1007E000020E75EB030E22BFB61A754640EA9C0056
:1007F0005B084FEA3202B6EB020E75EB030E22BF26
:10080000B61A754640EADC0055EA060E18D04FEAE3
:10081000051545EA16754FEA06164FEAC30343EA83
:1008200052734FEAC2025FEA1C1CC0D111F4801F50
:100830000BD141EA00014FF000004FF0004CB6E749
:1008400011F4801F04BF01430020B4F1FD0C88BFE8
:10085000BCF5E06F3FF6AFAEB5EB030C04BFB6EBF3
:10086000020C5FEA500C50F1000041EB045170BDE6
:100870000EF0004E4EEA113114EB5C04C2BFD4EB13
:100880000C0541EA045170BD41F480114FF0000E97
:10089000013C90E645EA060E8DE60CEA135594EA13
:1008A0000C0F08BF95EA0C0F3FF43BAF94EA0C0F16
:1008B0000AD150EA01347FF434AF95EA0C0F7FF48B
:1008C00025AF104619462CE795EA0C0F06D152EADF
:1008D00003353FF4FDAE1046194622E750EA4106C3
:1008E00018BF52EA43067FF4C5AE50EA41047FF4D4
:1008F0000DAF52EA43057FF4EBAE12E74FF0FF3C39
:1009000006E000BF4FF0010C02E000BF4FF0010C09
:100910004DF804CD4FEA410C7FEA6C5C4FEA430C82
:1009200018BF7FEA6C5C1BD001B050EA410C0CBFD1
:1009300052EA430C91EA030F02BF90EA020F002033
:10094000704710F1000F91EA030F58BF994208BF9A
:1009500090422CBFD8176FEAE37040F00100704757
:100960004FEA410C7FEA6C5C02D150EA013C07D1AE
:100970004FEA430C7FEA6C5CD6D152EA033CD3D0F9
:100980005DF8040B704700BF8446104662468C46F3
:100990001946634600E000BF01B5FFF7B7FF002826
:1009A00048BF10F1000F01BD4DF808EDFFF7F4FF4F
:1009B0000CBF012000205DF808FB00BF4DF808EDDA
:1009C000FFF7EAFF34BF012000205DF808FB00BFFD
:1009D0004DF808EDFFF7E0FF94BF012000205DF81F
:1009E00008FB00BF4DF808EDFFF7CEFF94BF0120D4
:1009F00000205DF808FB00BF4DF808EDFFF7C4FFCD
:100A000034BF012000205DF808FB00BF4FEA410C15
:100A10007FEA6C5C02D150EA013C0AD14FEA430CF8
:100A20007FEA6C5C02D152EA033C02D14FF0000035
:100A300070474FF0010070474FEA410212F5001273
:100A400015D211D56FF47873B3EB625212D94FEA15
:100A5000C12343F0004343EA505311F0004F23FAFF
:100A600002F018BF404270474FF00000704750EA54
:100A7000013005D111F0004008BF6FF00040704711
:100A80004FF00000704700BF4A0011D212F500126B
:100A900011D20DD56FF47873B3EB62520ED44FEAD6
:100AA000C12343F0004343EA505323FA02F0704756
:100AB0004FF00000704750EA013002D14FF0FF3094
:100AC00070474FF0000070474FEA4102B2F1E04337
:100AD00024BFB3F5001CDCF1FE5C0DD901F0004C25
:100AE0004FEAC0024CEA5070B2F1004F40EB830075
:100AF00008BF20F00100704711F0804F21D113F1A1
:100B00003872BCBF01F00040704741F480114FEAD9
:100B10005252C2F11802C2F1200C10FA0CF320FA62
:100B200002F018BF40F001004FEAC1234FEAD3237F
:100B300003FA0CFC40EA0C0023FA02F34FEA4303E9
:100B4000CCE77FEA625307D150EA01331EBF4FF072
:100B5000FE4040F44000704701F0004040F0FE408D
:100B600040F40000704700BF38B50022002304465F
:100B70000D46FFF723FF28B920462946BDE8384037
:100B800000F00AB8204605F1004100F005F84042A7
:100B900061EB410138BD00BFD0B500220B4B0646CA
:100BA0000F46FFF799FCFFF76FFF0446FFF71AFCAB
:100BB0000022074BFFF790FC02460B4630463946B1
:100BC000FFF7D2FAFFF760FF2146D0BD0000F03DED
:100BD0000000F04180B586B002AF0346FB71FB799F
:100BE00023F00F03FB73FB791B01BB73FB7B43F00B
:100BF0000C03DBB23B72FB7B43F00803DBB27B727E
:100C0000BB7B43F00C03DBB2BB72BB7B43F008033E
:100C1000DBB2FB7207F108026423009304234E2128
:100C2000034802F031FB00BF1037BD4680BD00BF56
:100C30007802002080B586B002AF0346FB71FB79D5
:100C400023F00F03FB73FB791B01BB73FB7B43F0AA
:100C50000D03DBB23B72FB7B43F00903DBB27B721B
:100C6000BB7B43F00D03DBB2BB72BB7B43F00903DC
:100C7000DBB2FB7207F108026423009304234E21C8
:100C8000034802F001FB00BF1037BD4680BD00BF26
:100C90007802002080B582B000AF8020FFF79AFF75
:100CA00000237B6005E02020FFF7C4FF7B68013351
:100CB0007B607B68452BF6DD00BF00BF0837BD4673
:100CC00080BD80B582B000AF786039607B68002B52
:100CD00003D07B68012B05D009E03B6843F080031B
:100CE0003B6004E03B6843F0C0033B6000BF3B68EF
:100CF000DBB21846FFF76EFF00BF0837BD4680BD68
:100D000080B500AF322001F09FF93020FFF762FF7D
:100D1000052001F099F93020FFF75CFF012001F078
:100D200093F93020FFF756FF0A2001F08DF92020BB
:100D3000FFF750FF0A2001F087F92820FFF74AFF4C
:100D4000012001F081F90820FFF744FF012001F0A4
:100D50007BF90120FFF73EFF012001F075F901202A
:100D600001F072F90620FFF735FF012001F06CF960
:100D70000C20FFF72FFF00BF80BD80B582B000AF11
:100D8000786006E07B685A1C7A601B781846FFF78B
:100D900051FF7B681B78002BF4D100BF00BF0837E0
:100DA000BD4680BD80B582B000AF786039607A689A
:100DB0000349386806F040F900BF0837BD4680BDDA
:100DC000A8A8000880B582B000AF4FF40071554864
:100DD00002F0CEF803461AB2534B5A804FF480719A
:100DE000504802F0C5F803461AB24F4B9A802021B2
:100DF0004C4802F0BDF803461AB24B4BDA80102182
:100E0000484802F0B5F803461AB2474B1A81082148
:100E1000444802F0ADF803461AB2434B5A814FF4EE
:100E20000041424802F0A4F803461AB23E4B9A81B0
:100E30004FF480513D4802F09BF803461AB23A4BFA
:100E4000DA814FF40061394802F092F803461AB291
:100E5000354B1A8208237B6010E0334A7B6832F9F5
:100E60001330002B04D17B681AB2314B1A8008E092
:100E70002F4B00221A807B68013B7B607B68002B34
:100E8000EBDA2B4BB3F90030013B082B38D801A229
:100E900052F823F0B90E0008C10E0008C90E000870
:100EA000D10E0008D90E0008E10E0008E90E000876
:100EB000F10E0008F90E00081E4B31221A7023E0D3
:100EC0001C4B32221A701FE01A4B33221A701BE09F
:100ED000184B34221A7017E0164B35221A7013E0A3
:100EE000144B36221A700FE0124B37221A700BE0A7
:100EF000104B38221A7007E00E4B39221A7003E0AB
:100F00000C4B30221A7000BF06210120FFF7D9FEDA
:100F1000084B1B781846FFF78DFE00BF0837BD460B
:100F200080BD00BF000C014004000020000801400B
:100F30007A0300202600002080B500AF0E4801F0A3
:100F40007FF90A210C4801F029FA0B4801F02CFB2B
:100F500003461A46094B1A60094801F071F90A2143
:100F6000074801F01BFA064801F01EFB03461A462B
:100F7000044B1A6000BF80BD1802002070030020DF
:100F8000480200207403002080B483B000AF034601
:100F9000FB80B7F90630082B38D801A252F823F0AD
:100FA000C50F0008CD0F0008D50F0008DD0F0008A1
:100FB000E50F0008ED0F0008F50F0008FD0F000811
:100FC00005100008144B30221A7020E0124B312219
:100FD0001A701CE0104B32221A7018E00E4B3322AC
:100FE0001A7014E00C4B34221A7010E00A4B3522B0
:100FF0001A700CE0084B36221A7008E0064B3722B4
:101000001A7004E0044B38221A7000E000BF00BFE1
:101010000C37BD4680BC70470000002080B483B010
:1010200000AF0346FB800B46BB801346FB70B7F94D
:101030000630012B06DCB7F90630B3F1FF3F01DBC8
:10104000012300E0002303F00103DAB2B7F9043012
:10105000012B04DCB7F90430B3F1FF3F01DA0123BF
:1010600000E0002303F00103DBB21340DBB2002BEE
:101070000FD0B7F90430012B02DD2A4B44221A703D
:10108000B7F90430B3F1FF3F46DA264B41221A701C
:1010900042E0B7F90430012B06DCB7F90430B3F1B4
:1010A000FF3F01DB012300E0002303F00103DAB27C
:1010B000B7F90630012B04DCB7F90630B3F1FF3F76
:1010C00001DA012300E0002303F00103DBB2134047
:1010D000DBB2002B0FD0B7F90630012B02DD114B2C
:1010E00057221A70B7F90630B3F1FF3F14DA0D4BEF
:1010F00053221A7010E0FB78312B03D1094B522296
:101100001A7009E0FB78322B03D1064B4C221A707F
:1011100002E0044B6E221A7000BF0C37BD4680BC43
:10112000704700BF0100002080B584B000AF786038
:1011300039607868FFF766F94FF00002414BFFF71E
:10114000F5FA02460B46104619464FF000023E4B98
:10115000FFF7C2F902460B46104619464FF000024F
:101160003A4BFFF701F802460B4610461946FFF7C7
:1011700063FC03467B603868FFF744F94FF00002D8
:10118000304BFFF7D3FA02460B46104619464FF094
:1011900000022D4BFFF7A0F902460B4610461946F8
:1011A0004FF00002294BFEF7DFFF02460B461046C8
:1011B0001946FFF741FC03463B607B681BB23A6867
:1011C00011B2234A12781846FFF728FF7B68002BDC
:1011D000B8BF5B427B603B68002BB8BF5B423B60A3
:1011E0007B68FB817A683B689A4201DA3B68FB8145
:1011F000B7F90E301846FFF7C7FEB7F90E3007F102
:101200000C0211461846FFF7CDFD00210020FFF724
:1012100058FD1048FFF7B1FD07F10C031846FFF722
:10122000ACFD08210020FFF74CFD0B48FFF7A5FDA2
:101230000A4B1B781846FFF7FDFC00BF1037BD4670
:1012400080BD00BF0000B0400000384000001C40DE
:1012500026000020B0A80008B8A80008010000205F
:1012600080B582B000AF0346FB800B46BB801346BF
:101270007B80FB88DBB21A460221074801F08FFE13
:10128000BB88DBB21A464FF48061034801F087FE49
:1012900000BF0837BD4680BD000C014080B582B05C
:1012A00000AF1C4B1B78012B30D11A4B00221A7057
:1012B000002004F099FC0346FB71FB7903F0010365
:1012C000002B01D104F0BDFD134804F052FD4FF492
:1012D000FA7320221049114803F082FE0B210120ED
:1012E000FFF7EFFC0C4B1B781846FFF7A3FC0A4BEB
:1012F0001B784E2B05D1002200210020FFF7B0FF04
:1013000004E0012201210120FFF7AAFF00BF0837F6
:10131000BD4680BD6C0300207C0300202403002018
:1013200080B584B000AF20220021204805F0E7FE00
:101330000023BB6004F09EFD0023FB6012E01C480C
:1013400000F0ADFD03467B607B68B3F1FF3F06D044
:101350007B68D9B2154AFB6813440A461A70FB68C9
:101360000133FB60FA68BB689A42E8DB114B1A78DC
:101370000E4B1A70104B1A780C4B5A700F4B1A7890
:101380000A4B9A700E4B1A78084BDA7004F0ECFD99
:10139000064804F0FBFC322000F056FE04F051FD3C
:1013A00004F0E2FD00BF1037BD4680BD9C03002065
:1013B000C0030020010000200000002026000020C3
:1013C0000200002080B500AF00F0DCFD00F070F8F6
:1013D00000F0D4F900F072F900F0A6F900F0C4F8BA
:1013E00000F000F900F03CF9FFF78AFCFFF752FC2F
:1013F000264B274A002140F6C41004F083FC254800
:1014000000F016FD244B1B685A69234B1B6842F001
:1014100001025A61204B1B68DA681F4B1B6842F0BF
:101420002002DA601D4800F00BFFFFF785FDFFF793
:10143000C9FC1B4B1B681B4A126811461846FFF774
:1014400073FE194BB3F900300A2B02D1174B31222E
:101450001A70FFF723FFFFF763FF134BB3F9003058
:101460009BB201339BB21AB20F4B1A800E4BB3F9E9
:1014700000300B2B05D10D4B30221A700A4B002285
:101480001A801E2000F0E0FDCFE700BF180000200A
:1014900020000020C00300202403002018020020A8
:1014A0007003002074030020780300200200002055
:1014B00080B594B000AF07F1280328220021184618
:1014C00005F01DFE07F1140300221A605A609A60AD
:1014D000DA601A613B1D00221A605A609A60DA6075
:1014E0000123BB624FF48033FB6200233B63012383
:1014F000BB6302237B644FF48033BB644FF4E0137F
:10150000FB6407F12803184602F016FA0346002B85
:1015100001D000F00BFA0F237B610223BB61002393
:10152000FB614FF480633B6200237B6207F114038D
:101530000221184602F082FC0346002B01D000F085
:10154000F5F902237B604FF40043FB603B1D184616
:1015500002F002FE0346002B01D000F0E7F900BFC5
:101560005037BD4680BD000080B584B000AF3B1D44
:1015700000221A605A609A60184B194A1A60174B79
:1015800000229A60154B01221A73144B00221A751F
:10159000124B4FF46022DA61104B00225A600F4B5D
:1015A00001221A610D4800F073FD0346002B01D0A3
:1015B00000F0BCF901237B600123BB600723FB60C3
:1015C0003B1D1946054800F0FBFF0346002B01D0E8
:1015D00000F0ACF900BF1037BD4680BD18020020F6
:1015E0000024014080B584B000AF3B1D00221A608A
:1015F0005A609A60184B194A1A60174B00229A6079
:10160000154B00221A73144B00221A75124B4FF41B
:101610006022DA61104B00225A600F4B01221A61DE
:101620000D4800F035FD0346002B01D000F07EF997
:1016300000237B600123BB600723FB603B1D194631
:10164000054800F0BDFF0346002B01D000F06EF905
:1016500000BF1037BD4680BD480200200028014071
:1016600080B500AF124B134A1A60114B124A5A60F0
:101670000F4B00229A600E4B0022DA600C4B4FF4A5
:1016800080421A610A4B00225A61094B00229A617A
:10169000074B0022DA61064B00221A62044801F06F
:1016A000AFFC0346002B01D000F040F900BF80BD25
:1016B0007802002000540040A086010080B500AFF1
:1016C000174B184A1A60164B4FF482725A60144B2B
:1016D00000229A60124B0022DA60114B00221A613C
:1016E0000F4B00225A610E4B4FF400729A610C4B63
:1016F0001822DA610A4B00221A62094B00225A6250
:10170000074B00229A62064B0A22DA62044802F072
:101710008FFE0346002B01D000F008F900BF80BD0A
:10172000CC0200200030014080B500AF114B124ABE
:101730001A60104B4FF4E1325A600E4B00229A604F
:101740000C4B0022DA600B4B00221A61094B0C2271
:101750005A61084B00229A61064B0022DA61054863
:1017600003F0EEFB0346002B01D000F0DFF800BFD2
:1017700080BD00BF240300200038014080B588B040
:1017800000AF07F1100300221A605A609A60DA6015
:10179000584B9B69574A43F010039361554B9B6923
:1017A00003F01003FB60FB68524B9B69514A43F006
:1017B000200393614F4B9B6903F02003BB60BB6820
:1017C0004C4B9B694B4A43F004039361494B9B6923
:1017D00003F004037B607B68464B9B69454A43F0FA
:1017E00008039361434B9B6903F008033B603B682C
:1017F00000224FF40051404801F0D1FB01220821A2
:101800003E4801F0CCFB002210213C4801F0C7FB10
:10181000002240F606413A4801F0C1FB4FF4005364
:101820003B6101237B610023BB610223FB6107F164
:1018300010031946304801F017FA04233B61314B7D
:101840007B610123BB6107F1100319462B4801F0AE
:101850000BFA08233B6101237B610123BB61032356
:10186000FB6107F110031946244801F0FDF910232C
:101870003B6101237B610223BB610323FB6107F111
:10188000100319461D4801F0EFF940F239333B616E
:1018900000237B610023BB6107F110031946184840
:1018A00001F0E2F940F606433B6101237B6100232E
:1018B000BB610223FB6107F110031946104801F0D8
:1018C000D3F94FF418433B6100237B610023BB61D4
:1018D00007F110031946094801F0C6F9002200215A
:1018E000082001F0D8F8082001F0F1F800BF2037F7
:1018F000BD4680BD001002400010014000080140BC
:10190000000C01400000211080B483B000AF0346FA
:10191000FB80FB88042B02D1034B01221A7000BF0D
:101920000C37BD4680BC70476C03002080B400AF0C
:1019300072B600BF00BFFDE780B485B000AF154BA5
:101940009B69144A43F001039361124B9B6903F0B6
:101950000103BB60BB680F4BDB690E4A43F0805349
:10196000D3610C4BDB6903F080537B607B680A4BCF
:101970005B68FB60FB6823F0E063FB60FB6843F09F
:101980000073FB60044AFB68536000BF1437BD4618
:1019900080BC7047001002400000014080B58AB052
:1019A00000AF786007F1180300221A605A609A604D
:1019B000DA607B681B68284A934222D1274B9B69D7
:1019C000264A43F400739361244B9B6903F400732C
:1019D0007B617B69214B9B69204A43F0040393613F
:1019E0001E4B9B6903F004033B613B690223BB610F
:1019F0000323FB6107F118031946194801F034F974
:101A000026E07B681B68174A934221D1134B9B69E0
:101A1000124A43F480639361104B9B6903F4806323
:101A2000FB60FB680D4B9B690C4A43F00403936118
:101A30000A4B9B6903F00403BB60BB680123BB61D5
:101A40000323FB6107F118031946054801F00CF95F
:101A500000BF2837BD4680BD002401400010024071
:101A6000000801400028014080B588B000AF7860D0
:101A700007F1100300221A605A609A60DA607B68EE
:101A80001B68154A934223D1144B9B69134A43F0B8
:101A900008039361114B9B6903F00803FB60FB682B
:101AA000C0233B6112237B610323FB6107F1100319
:101AB00019460B4801F0D8F8084BDB69074A43F494
:101AC0000013D361054BDB6903F40013BB60BB68F3
:101AD00000BF2037BD4680BD0054004000100240CA
:101AE000000C014080B588B000AF786007F11003AA
:101AF00000221A605A609A60DA607B681B681B4A91
:101B000093422FD11A4B9B69194A43F48053936136
:101B1000174B9B6903F48053FB60FB68144B9B6974
:101B2000134A43F004039361114B9B6903F00403D0
:101B3000BB60BB68A0233B6102237B610323FB6185
:101B400007F1100319460B4801F08EF840233B6162
:101B500000237B610023BB6107F110031946054890
:101B600001F082F800BF2037BD4680BD0030014043
:101B7000001002400008014080B588B000AF7860D6
:101B800007F1100300221A605A609A60DA607B68DD
:101B90001B68204A934239D11F4B9B691E4A43F46C
:101BA000804393611C4B9B6903F48043FB60FB689B
:101BB000194B9B69184A43F004039361164B9B69C8
:101BC00003F00403BB60BB684FF400733B61022366
:101BD0007B610323FB6107F1100319460F4801F0F5
:101BE00043F84FF480633B6100237B610023BB61BA
:101BF00007F110031946094801F036F800220021C8
:101C0000252000F048FF252000F061FF00BF2037AD
:101C1000BD4680BD00380140001002400008014070
:101C200080B400AF00BFFDE780B400AF00BFFDE7A8
:101C300080B400AF00BFFDE780B400AF00BFFDE798
:101C400080B400AF00BFFDE780B400AF00BFBD4669
:101C500080BC704780B400AF00BFBD4680BC7047F9
:101C600080B400AF00BFBD4680BC704780B500AFF8
:101C700000F0CEF900BF80BD80B500AF042001F0B8
:101C8000A7F900BF80BD000080B500AF034800F099
:101C90002BF9024803F028FA00BF80BD240300207E
:101CA00080B400AF01231846BD4680BC704780B5A4
:101CB00082B000AF7860396005F074FA03461622EE
:101CC0001A604FF0FF3318460837BD4680BD80B517
:101CD00082B000AF78604FF0FF317868FFF7E7FF20
:101CE00000BFFDE780B586B000AFF860B9607A60EC
:101CF00000237B610AE0AFF300800146BB685A1CF9
:101D0000BA60CAB21A707B6901337B617A697B68F9
:101D10009A42F0DB7B6818461837BD4680BD80B517
:101D200086B000AFF860B9607A6000237B6109E09B
:101D3000BB685A1CBA601B781846AFF300807B69F9
:101D400001337B617A697B689A42F1DB7B681846D4
:101D50001837BD4680BD80B483B000AF78604FF0C7
:101D6000FF3318460C37BD4680BC704780B483B043
:101D700000AF786039603B684FF400525A6000232E
:101D800018460C37BD4680BC704780B483B000AFA6
:101D90007860012318460C37BD4680BC704780B47C
:101DA00085B000AFF860B9607A6000231846143738
:101DB000BD4680BC7047000080B586B000AF78603B
:101DC000144A154BD31A7B617B693B61134B1B682B
:101DD000002B02D1114B124A1A60104B1A687B6813
:101DE00013443A699A4207D205F0DCF903460C2203
:101DF0001A604FF0FF3309E0084B1B68FB60074B8C
:101E00001A687B681344054A1360FB681846183744
:101E1000BD4680BD0050002000040000BC0300202F
:101E20003805002080B400AF00BFBD4680BC7047BD
:101E300080B582B000AF78607B6800221A847B682E
:101E400000225A847B6804220021184605F057F9C5
:101E500000BF0837BD4680BD80B485B000AF786054
:101E60000B46FB707B681B8C9BB201339BB203F06B
:101E70001F03FB817B685B8C9BB2FA899A4209D075
:101E80007B681B8C9BB219467B68FA785A547B6836
:101E9000FA891A8400BF1437BD4680BC704780B4ED
:101EA00085B000AF78607B681B8C9AB27B685B8CD6
:101EB0009BB29A4201D1FF2311E07B685B8C9BB2FD
:101EC0001A467B689B5CFB737B685B8C9BB201331F
:101ED0009BB203F01F039AB27B685A84FB7B1846BF
:101EE0001437BD4680BC704780B586B000AF7860BF
:101EF0007B681B681B687B617B681B68DB683B61D8
:101F00007B6903F02003002B11D03B6903F0200311
:101F1000002B0CD07B681B681B687B681B685B68A8
:101F2000FB73FB7B19460348FFF796FF00BF18378A
:101F3000BD4680BDC0030020FFF774FF0B480C496D
:101F40000C4A002302E0D458C4500433C4188C4215
:101F5000F9D3094A094C002301E013600432A2427C
:101F6000FBD305F025F9FFF72DFA7047000000209C
:101F7000FC01002040AD0008FC01002034050020D9
:101F8000FEE7000080B500AF084B1B68074A43F02E
:101F900010031360032000F073FD0F2000F008F819
:101FA000FFF7CAFC0023184680BD00BF0020024096
:101FB00080B582B000AF7860124B1A68124B1B7864
:101FC00019464FF47A73B3FBF1F3B2FBF3F31846FF
:101FD00000F08BFD0346002B01D001230EE07B684F
:101FE0000F2B0AD8002279684FF0FF3000F053FD24
:101FF000064A7B681360002300E001231846083777
:10200000BD4680BD28000020300000202C000020AC
:1020100080B400AF054B1B781A46054B1B68134470
:10202000034A136000BFBD4680BC704730000020EB
:10203000E403002080B400AF024B1B681846BD4685
:1020400080BC7047E403002080B584B000AF7860A6
:10205000FFF7F0FFB8607B68FB60FB68B3F1FF3F00
:1020600005D00A4B1B781A46FB681344FB6000BF7F
:10207000FFF7E0FF0246BB68D31AFA689A42F7D826
:1020800000BF00BF1037BD4680BD00BF300000203C
:1020900080B586B000AF78600023FB7500233B61FC
:1020A0000023BB600023FB607B68002B01D1012370
:1020B000BEE07B689B68002B7B689B6A002B09D184
:1020C0007B680022DA627B68002283F8242078682B
:1020D000FFF764FC786800F0C5FB0346FB757B687E
:1020E0009B6A03F01003002B40F09980FB7D002BCE
:1020F00040F095807B689B6A23F4885323F00203A9
:1021000043F002027B689A627B685A687B68DB69ED
:102110001A437B681B7B5B001343BA681343BB60A5
:102120007B689B68B3F5807F03D07B689B68012B3D
:1021300002D14FF4807300E000233A6913433B61FE
:102140007B681B7D012B19D17B681B7B002B09D180
:102150007B689B69013B5A033B69134343F400636B
:102160003B610BE07B689B6A43F020027B689A62CC
:102170007B68DB6A43F001027B68DA627B681B687C
:102180005B6823F469417B681B683A690A435A60BB
:102190007B681B689A68284B13407A681268B96894
:1021A0000B4393607B689B68B3F5807F03D07B68AB
:1021B0009B68012B04D17B681B69013B1B05FB60FD
:1021C0007B681B68DB6A23F470017B681B68FA6814
:1021D0000A43DA627B681B689A68184B1340BA6836
:1021E0009A420BD17B680022DA627B689B6A23F0FB
:1021F000030343F001027B689A6218E07B689B6AE4
:1022000023F0120343F010027B689A627B68DB6A5A
:1022100043F001027B68DA620123FB7507E07B680B
:102220009B6A43F010027B689A620123FB75FB7D79
:1022300018461837BD4680BDFDF7E1FFFE0E1FFFB3
:1022400080B584B000AF78600023FB737B6893F89F
:102250002430012B01D1022398E07B68012283F80E
:102260002420786800F0A4FA0346FB73FB7B002B64
:1022700040F087807B689B6A23F4407323F001035E
:1022800043F480727B689A627B681B68414A934280
:1022900005D1414B5B6803F47023002B15D17B689B
:1022A0009B6A23F480127B689A627B681B685B6878
:1022B00003F48063002B26D07B689B6A23F4405391
:1022C00043F480527B689A621DE07B689B6A43F40A
:1022D00080127B689A627B681B682F4A934204D005
:1022E0007B681B682B4A93420DD12B4B5B6803F430
:1022F0008063002B07D07B689B6A23F4405343F430
:1023000080527B689A627B689B6A03F48053002B3F
:1023100006D07B68DB6A23F006027B68DA6202E0A3
:102320007B680022DA627B68002283F824207B68C5
:102330001B686FF002021A607B681B689B6803F4DD
:102340006023B3F5602F13D17B681B68114A934259
:1023500005D1114B5B6803F47023002B08D17B6817
:102360001B689A687B681B6842F4A0029A600CE0C4
:102370007B681B689A687B681B6842F480129A60CD
:1023800003E07B68002283F82420FB7B184610378B
:10239000BD4680BD002801400024014090B587B0B3
:1023A00000AF7860396000237B610023FB6000236D
:1023B0003B61FFF73FFE78617B681B689B6803F415
:1023C0008073002B0BD07B689B6A43F020027B68F4
:1023D0009A627B68002283F824200123D3E07B6883
:1023E0001B685B6803F48073002B31D17B681B682A
:1023F000DB6A03F47003002B2AD121E03B68B3F1C0
:10240000FF3F1DD03B68002B07D0FFF713FE0246AD
:102410007B69D31A3A689A4212D27B681B681B68A0
:1024200003F00203002B0BD17B689B6A43F004028C
:102430007B689A627B68002283F824200323A2E051
:102440007B681B681B6803F00203002BD6D070E08A
:102450004F4B1C68022001F035FF0346B4FBF3F23A
:102460007B681B6819694B4B0B40002B18D17B68AC
:102470001B68D968484B0B40002B11D17B681B6847
:102480001969464B0B40002B08D17B681B68D96843
:10249000434B0B40002B01D1142320E029231EE0E5
:1024A0007B681B6819693D4B0B40002B06D17B688C
:1024B0001B68D9683A4B0B40002B0DD07B681B681A
:1024C0001969384B0B40002B08D17B681B68D96811
:1024D000344B0B40002B01D1542300E0FC2302FBC2
:1024E00003F33B6121E03B68B3F1FF3F1AD03B6847
:1024F000002B07D0FFF79EFD02467B69D31A3A688E
:102500009A420FD2FB683A699A420BD97B689B6A60
:1025100043F004027B689A627B68002283F82420DF
:10252000032330E0FB680133FB60FB683A699A42A1
:10253000D9D87B681B686FF012021A607B689B6AAF
:1025400043F400727B689A627B681B689B6803F4A3
:102550006023B3F5602F15D17B681B7B002B11D155
:102560007B689B6A23F480727B689A627B689B6AB3
:1025700003F48053002B05D17B689B6A43F0010272
:102580007B689A62002318461C37BD4690BD00BF89
:1025900028000020244992242449920092244912C0
:1025A000922449004992240080B483B000AF78603F
:1025B0007B681B68DB6C18460C37BD4680BC7047D7
:1025C00080B485B000AF786039600023FB730023CE
:1025D000BB607B6893F82430012B01D10223DCE03F
:1025E0007B68012283F824203B685B68062B1CD89B
:1025F0007B681B68596B3B685A6813469B00134401
:10260000053B1F2202FA03F3DB4319403B681868BD
:102610003B685A6813469B001344053B00FA03F2DB
:102620007B681B680A435A633CE03B685B680C2B81
:102630001CD87B681B68196B3B685A6813469B0063
:102640001344233B1F2202FA03F3DB4319403B6888
:1026500018683B685A6813469B001344233B00FAF2
:1026600003F27B681B680A431A631BE07B681B68E4
:10267000D96A3B685A6813469B001344413B1F22AA
:1026800002FA03F3DB4319403B6818683B685A6859
:1026900013469B001344413B00FA03F27B681B681E
:1026A0000A43DA623B681B68092B1CD97B681B68EC
:1026B000D9683B681A6813465B0013441E3B072227
:1026C00002FA03F3DB4319403B6898683B681A68D9
:1026D00013465B0013441E3B00FA03F27B681B6841
:1026E0000A43DA6019E07B681B6819693B681A685D
:1026F00013465B001344072202FA03F3DB4319403D
:102700003B6898683B681A6813465B00134400FAFC
:1027100003F27B681B680A431A613B681B68102B35
:1027200003D03B681B68112B32D17B681B681D4AA4
:10273000934225D17B681B689B6803F40003002B40
:1027400026D17B681B689A687B681B6842F400028C
:102750009A603B681B68102B1AD1134B1B68134AF5
:10276000A2FB03239A0C13469B0013445B00BB603F
:1027700002E0BB68013BBB60BB68002BF9D107E0FE
:102780007B689B6A43F020027B689A620123FB739B
:102790007B68002283F82420FB7B18461437BD4653
:1027A00080BC7047002401402800002083DE1B43CA
:1027B00080B584B000AF78600023FB600023BB606D
:1027C0007B681B689B6803F00103012B40D07B688A
:1027D0001B689A687B681B6842F001029A601F4B75
:1027E0001B681F4AA2FB03239B0CBB6002E0BB6873
:1027F000013BBB60BB68002BF9D1FFF71BFCF86005
:102800001FE0FFF717FC0246FB68D31A022B18D90A
:102810007B681B689B6803F00103012B11D07B6868
:102820009B6A43F010027B689A627B68DB6A43F024
:1028300001027B68DA627B68002283F8242001238E
:1028400007E07B681B689B6803F00103012BD8D16C
:10285000002318461037BD4680BD00BF2800002069
:1028600083DE1B4380B584B000AF78600023FB603B
:102870007B681B689B6803F00103012B2ED17B68EA
:102880001B689A687B681B6822F001029A60FFF758
:10289000D1FBF8601BE0FFF7CDFB0246FB68D31AC3
:1028A000022B14D97B681B689B6803F00103012B82
:1028B0000DD17B689B6A43F010027B689A627B684B
:1028C000DB6A43F001027B68DA62012307E07B6880
:1028D0001B689B6803F00103012BDCD00023184622
:1028E0001037BD4680BD000080B485B000AF786071
:1028F0007B6803F00703FB600C4BDB68BB60BA68C6
:102900004FF6FF031340BB60FB681A02BB6813431A
:1029100043F0BF6343F40033BB60044ABB68D36039
:1029200000BF1437BD4680BC704700BF00ED00E01B
:1029300080B400AF044BDB681B0A03F007031846A2
:10294000BD4680BC704700BF00ED00E080B483B09E
:1029500000AF0346FB7197F90730002B0BDBFB79C7
:1029600003F01F02064997F907305B09012000FABE
:1029700002F241F8232000BF0C37BD4680BC7047EF
:1029800000E100E080B483B000AF03463960FB7122
:1029900097F90730002B0ADB3B68DAB20C4997F94C
:1029A00007301201D2B20B4483F800230AE03B68DF
:1029B000DAB20849FB7903F00F03043B1201D2B2EB
:1029C0000B441A7600BF0C37BD4680BC704700BF71
:1029D00000E100E000ED00E080B489B000AFF860F5
:1029E000B9607A60FB6803F00703FB61FB69C3F120
:1029F0000703042B28BF0423BB61FB690433062BA8
:102A000002D9FB69033B00E000237B614FF0FF32FA
:102A1000BB6902FA03F3DA43BB681A407B699A4048
:102A20004FF0FF317B6901FA03F3D9437B680B4018
:102A3000134318462437BD4680BC704780B582B02A
:102A400000AF78607B68013BB3F1807F01D3012345
:102A50000FE00A4A7B68013B53600F214FF0FF30C3
:102A6000FFF790FF054B00229A60044B07221A6083
:102A7000002318460837BD4680BD00BF10E000E0C7
:102A800080B582B000AF78607868FFF72DFF00BF97
:102A90000837BD4680BD80B586B000AF0346B9603B
:102AA0007A60FB7300237B61FFF742FF78617A68ED
:102AB000B9687869FFF790FF024697F90F30114621
:102AC0001846FFF75FFF00BF1837BD4680BD80B5D1
:102AD00082B000AF0346FB7197F907301846FFF745
:102AE00035FF00BF0837BD4680BD80B582B000AF5E
:102AF00078607868FFF7A2FF034618460837BD469E
:102B000080BD80B485B000AF78600023FB737B6824
:102B100093F82130DBB2022B08D07B6804229A6341
:102B20007B68002283F82020012320E07B681B685B
:102B30001A687B681B6822F00E021A607B681B68AB
:102B40001A687B681B6822F001021A607B681A6CA5
:102B50007B68DB6B012101FA02F25A607B6801227B
:102B600083F821207B68002283F82020FB7B184615
:102B70001437BD4680BC704780B584B000AF786024
:102B80000023FB737B6893F82130DBB2022B05D066
:102B90007B6804229A630123FB7351E07B681B6806
:102BA0001A687B681B6822F00E021A607B681B683B
:102BB0001A687B681B6822F001021A607B681B6838
:102BC000224A934229D07B681B68214A934222D033
:102BD0007B681B681F4A93421AD07B681B681E4A99
:102BE000934212D07B681B681C4A93420AD07B68D0
:102BF0001B681B4A934202D14FF480130EE04FF042
:102C000080730BE04FF4803308E04FF4805305E00D
:102C10004FF4807302E0102300E00123114A536057
:102C20007B68012283F821207B68002283F8202022
:102C30007B685B6B002B03D07B685B6B7868984785
:102C4000FB7B18461037BD4680BD00BF0800024020
:102C50001C00024030000240440002405800024084
:102C60006C0002400000024080B48BB000AF78607E
:102C7000396000237B6200233B6269E101227B6AA9
:102C800002FA03F3FB613B681B68FA691340BB61FE
:102C9000BA69FB699A4240F058813B685B689A4A7E
:102CA00093425ED0984A934275D8984A934258D03E
:102CB000964A93426FD8964A934252D0944A93428E
:102CC00069D8944A93424CD0924A934263D8924A2C
:102CD000934246D0904A93425DD8122B2AD8122BA9
:102CE00059D801A252F823F0632D00083D2D0008A9
:102CF0004F2D0008912D0008972D0008972D0008F2
:102D0000972D0008972D0008972D0008972D000893
:102D1000972D0008972D0008972D0008972D000883
:102D2000972D0008972D0008972D0008452D0008C5
:102D3000592D0008794A934213D02CE03B68DB6898
:102D40003B6229E03B68DB6804333B6224E03B687C
:102D5000DB6808333B621FE03B68DB680C333B6297
:102D60001AE03B689B68002B02D104233B6213E00E
:102D70003B689B68012B05D108233B627B68FA699D
:102D80001A6109E008233B627B68FA695A6103E033
:102D900000233B6200E000BFBB69FF2B01D87B68CA
:102DA00001E07B6804337B61BB69FF2B02D87B6A3F
:102DB0009B0002E07B6A083B9B003B617B691A68D1
:102DC0000F213B6901FA03F3DB431A40396A3B697F
:102DD00001FA03F31A437B691A603B685B6803F0EE
:102DE0008053002B00F0B1804D4B9B694C4A43F05F
:102DF000010393614A4B9B6903F00103BB60BB680D
:102E0000484A7B6A9B08023352F82330FB607B6A96
:102E100003F003039B000F2202FA03F3DB43FA687B
:102E20001340FB607B68404A934213D07B683F4A63
:102E300093420DD07B683E4A934207D07B683D4A5F
:102E4000934201D1032306E0042304E0022302E0BD
:102E5000012300E000237A6A02F00302920093400B
:102E6000FA681343FB602F497B6A9B080233FA68B8
:102E700041F823203B685B6803F48013002B06D0E5
:102E80002D4B9A682C49BB6913438B6006E02A4B93
:102E90009A68BB69DB43284913408B603B685B68D9
:102EA00003F40013002B06D0234BDA682249BB69D8
:102EB0001343CB6006E0204BDA68BB69DB431E4955
:102EC0001340CB603B685B6803F40033002B06D0F3
:102ED000194B5A681849BB6913434B6006E0164BFF
:102EE0005A68BB69DB43144913404B603B685B681D
:102EF00003F48033002B21D00F4B1A680E49BB69B5
:102F000013430B6021E000BF0000321000003110BD
:102F1000000022100000211000001210000011100B
:102F2000001002400000014000080140000C014078
:102F30000010014000140140000401400B4B1A68CE
:102F4000BB69DB43094913400B607B6A01337B6239
:102F50003B681A687B6A22FA03F3002B7FF48EAE7B
:102F600000BF00BF2C37BD4680BC70470004014045
:102F700080B485B000AF78600B467B807B689A6830
:102F80007B881340002B02D00123FB7301E0002358
:102F9000FB73FB7B18461437BD4680BC704780B47A
:102FA00083B000AF78600B467B8013467B707B78E4
:102FB000002B03D07A887B681A6103E07B881A04AF
:102FC0007B681A6100BF0C37BD4680BC70470000AB
:102FD00080B582B000AF0346FB80084B5A69FB887E
:102FE0001340002B06D0054AFB885361FB88184626
:102FF000FEF78AFC00BF0837BD4680BD00040140D3
:1030000080B584B000AF78607B68002B01D10123CC
:103010002BE17B6893F83D30DBB2002B06D17B6857
:10302000002283F83C207868FEF71EFD7B6824228E
:1030300083F83D207B681B681A687B681B6822F058
:1030400001021A607B681B681A687B681B6842F47F
:1030500000421A607B681B681A687B681B6822F450
:1030600000421A6001F032F8F8607B685B68814AC0
:10307000934207D8FB68804A934294BF0123002300
:10308000DBB206E0FB687D4A934294BF0123002334
:10309000DBB2002B01D00123E7E0FB68784AA2FBFA
:1030A00003239B0CBB607B681B685B6823F03F01BC
:1030B0007B681B68BA680A435A607B681B681B6A96
:1030C00023F03F017B685B686A4A934202D8BB6881
:1030D000013309E0BB684FF4967202FB03F3694ABF
:1030E000A2FB03239B0901337A6812680B43136226
:1030F0007B681B68DB6923F44F4222F0FF027B6888
:103100005B685C498B4219D8FB68591E7B685B6819
:103110005B00B1FBF3F3591C40F6FC730B40002B32
:103120000AD0FB68591E7B685B685B00B1FBF3F358
:103130000133C3F30B0351E004234FE07B689B682A
:10314000002B11D1FB68581E7B6859680B465B0049
:103150000B44B0FBF3F30133C3F30B03002B0CBFA1
:1031600001230023DBB212E0FB68581E7B6859681C
:103170000B469B000B4499000B44B0FBF3F3013367
:10318000C3F30B03002B0CBF01230023DBB2002B86
:1031900001D0012322E07B689B68002B0ED1FB68E5
:1031A000581E7B6859680B465B000B44B0FBF3F379
:1031B0000133C3F30B0343F400430FE0FB68581ED5
:1031C0007B6859680B469B000B4499000B44B0FB8D
:1031D000F3F30133C3F30B0343F440437968096805
:1031E0001343CB617B681B681B6823F0C0017B68BD
:1031F000DA697B681B6A1A437B681B680A431A609A
:103200007B681B689B6823F4034323F0FF037A6801
:1032100011697A68D26811437A6812680B43936027
:103220007B681B68DB6823F0FF017B685A697B6859
:103230009B691A437B681B680A43DA607B681B68DA
:103240001A687B681B6842F001021A607B680022E2
:103250001A647B68202283F83D207B6800221A6371
:103260007B68002283F83E20002318461037BD46B5
:1032700080BD00BFA08601007F841E00FF083D00C6
:1032800083DE1B43D34D621080B588B002AFF86077
:103290007A601A460B467B8113463B81FEF7CAFED5
:1032A0007861FB6893F83D30DBB2202B40F0E08082
:1032B0007B690093192301227049F86800F064F9D2
:1032C0000346002B01D00223D3E0FB6893F83C3087
:1032D000012B01D10223CCE0FB68012283F83C20C2
:1032E000FB681B681B6803F00103012B07D0FB6818
:1032F0001B681A68FB681B6842F001021A60FB68D1
:103300001B681A68FB681B6822F400621A60FB687D
:10331000212283F83D20FB68102283F83E20FB68C1
:1033200000221A64FB687A685A62FB683A895A85F7
:10333000FB685B8D9AB2FB681A85FB68504ADA62BB
:1033400079897B693A6AF86800F09CF80346002B9B
:1033500001D001238DE000233B61FB681B685B69A2
:103360003B61FB681B689B693B613B6966E07A696E
:10337000396AF86800F022FA0346002B0DD0FB688A
:103380001B6C042B07D1FB681B681A68FB681B6861
:1033900042F400721A6001236BE0FB685B6A1A78E2
:1033A000FB681B681A61FB685B6A5A1CFB685A62FF
:1033B000FB685B8D9BB2013B9AB2FB685A85FB6848
:1033C0001B8D013B9AB2FB681A85FB681B685B6921
:1033D00003F00403042B1BD1FB681B8D002B17D0BB
:1033E000FB685B6A1A78FB681B681A61FB685B6A9A
:1033F0005A1CFB685A62FB685B8D9BB2013B9AB218
:10340000FB685A85FB681B8D013B9AB2FB681A85E5
:103410007A69396AF86800F019FA0346002B0DD072
:10342000FB681B6C042B07D1FB681B681A68FB68E0
:103430001B6842F400721A6001231AE0FB681B8DBE
:10344000002B94D1FB681B681A68FB681B6842F468
:1034500000721A60FB68202283F83D20FB6800227E
:1034600083F83E20FB68002283F83C20002300E024
:10347000022318461837BD4680BD00BF0200100069
:103480000000FFFF80B588B002AFF8607A603B6053
:103490000B467B81FB68DB6A7B617B69082B06D06E
:1034A0007B69012B03D07B6913F5803F08D1FB6852
:1034B0001B681A68FB681B6842F480721A600BE094
:1034C000FB681B6B122B07D1FB681B681A68FB6833
:1034D0001B6842F480721A603B6800937B6800228C
:1034E0004FF00111F86800F04FF80346002B0DD0A3
:1034F000FB681B681B6803F48073B3F5807F03D1FE
:10350000FB684FF400721A64032335E0FB681B6903
:10351000B3F5804F08D17B89DBB21A46FB681B6884
:1035200002F0FE021A611BE07B89DB11DBB203F0C3
:103530000603DBB263F00F03DAB2FB681B681A61A3
:103540003B687A680E49F86800F098F80346002B4B
:1035500001D0012310E07B89DAB2FB681B681A6195
:103560003B687A680749F86800F088F80346002B42
:1035700001D0012300E0002318461837BD4680BD66
:10358000080001000200010080B584B000AFF860BF
:10359000B9603B601346FB7148E03B68B3F1FF3F05
:1035A00044D0FEF747FD0246BB69D31A3A689A42F7
:1035B00002D33B68002B39D1BB681B0CDBB2012B5B
:1035C0000DD1FB681B685B69DA43BB6813409BB293
:1035D000002B0CBF01230023DBB21A460CE0FB6872
:1035E0001B689B69DA43BB6813409BB2002B0CBF7E
:1035F00001230023DBB21A46FB799A4216D1FB68FD
:1036000000221A63FB68202283F83D20FB68002219
:1036100083F83E20FB681B6C43F02002FB681A64B1
:10362000FB68002283F83C20012323E0BB681B0CCD
:10363000DBB2012B0DD1FB681B685B69DA43BB6809
:1036400013409BB2002B0CBF01230023DBB21A46B0
:103650000CE0FB681B689B69DA43BB6813409BB2B4
:10366000002B0CBF01230023DBB21A46FB799A42E0
:1036700093D0002318461037BD4680BD80B584B076
:1036800000AFF860B9607A603B6071E0FB681B686E
:103690005B6903F48063B3F5806F23D1FB681B681B
:1036A0001A68FB681B6842F400721A60FB681B68AA
:1036B0006FF480625A61FB6800221A63FB68202263
:1036C00083F83D20FB68002283F83E20FB681B6CDA
:1036D00043F00402FB681A64FB68002283F83C2074
:1036E000012367E07B68B3F1FF3F41D0FEF7A2FC06
:1036F00002463B68D31A7A689A4202D37B68002B51
:1037000036D1BB681B0CDBB2012B0CD1FB681B68EC
:103710005B69DA43BB6813409BB2002B14BF0123E3
:103720000023DBB20BE0FB681B689B69DA43BB68D4
:1037300013409BB2002B14BF01230023DBB2002BEC
:1037400016D0FB6800221A63FB68202283F83D2014
:10375000FB68002283F83E20FB681B6C43F02002CC
:10376000FB681A64FB68002283F83C20012321E0F7
:10377000BB681B0CDBB2012B0CD1FB681B685B69BF
:10378000DA43BB6813409BB2002B14BF0123002314
:10379000DBB20BE0FB681B689B69DA43BB68134034
:1037A0009BB2002B14BF01230023DBB2002B7FF45C
:1037B0006DAF002318461037BD4680BD80B584B07C
:1037C00000AFF860B9607A6034E0F86800F086F81D
:1037D0000346002B01D0012334E0BB68B3F1FF3F67
:1037E00028D0FEF727FC02467B68D31ABA689A42B3
:1037F00002D3BB68002B1DD1FB681B685B6903F01B
:103800008003802B16D0FB6800221A63FB682022FD
:1038100083F83D20FB68002283F83E20FB681B6C88
:1038200043F02002FB681A64FB68002283F83C2006
:10383000012307E0FB681B685B6903F08003802BB2
:10384000C3D1002318461037BD4680BD80B584B073
:1038500000AFF860B9607A6034E0F86800F03EF8D4
:103860000346002B01D0012334E0BB68B3F1FF3FD6
:1038700028D0FEF7DFFB02467B68D31ABA689A426B
:1038800002D3BB68002B1DD1FB681B685B6903F08A
:103890000403042B16D0FB6800221A63FB68202265
:1038A00083F83D20FB68002283F83E20FB681B6CF8
:1038B00043F02002FB681A64FB68002283F83C2076
:1038C000012307E0FB681B685B6903F00403042B1A
:1038D000C3D1002318461037BD4680BD80B483B0E5
:1038E00000AF78607B681B685B6903F48063B3F5A5
:1038F000806F1BD17B681B686FF480625A617B68A4
:1039000000221A637B68202283F83D207B68002216
:1039100083F83E207B681B6C43F004027B681A64CA
:103920007B68002283F83C20012300E00023184636
:103930000C37BD4680BC704780B586B000AF78605C
:103940007B68002B01D1012372E27B681B6803F0C6
:103950000103002B00F08780924B5B6803F00C039F
:10396000042B0CD08F4B5B6803F00C03082B12D197
:103970008C4B5B6803F48033B3F5803F0BD1894BEC
:103980001B6803F40033002B6CD07B685B68002B52
:1039900068D101234CE27B685B68B3F5803F06D1B8
:1039A000804B1B687F4A43F4803313602EE07B68B2
:1039B0005B68002B0CD17B4B1B687A4A23F4803365
:1039C0001360784B1B68774A23F4802313601DE053
:1039D0007B685B68B3F5A02F0CD1724B1B68714AF2
:1039E00043F4802313606F4B1B686E4A43F48033AB
:1039F00013600BE06B4B1B686A4A23F4803313603F
:103A0000684B1B68674A23F4802313607B685B68FC
:103A1000002B13D0FEF70EFB386108E0FEF70AFB1F
:103A200002463B69D31A642B01D9032300E25D4BA4
:103A30001B6803F40033002BF0D014E0FEF7FAFA11
:103A4000386108E0FEF7F6FA02463B69D31A642BA8
:103A500001D90323ECE1534B1B6803F40033002B23
:103A6000F0D100E000BF7B681B6803F00203002B6D
:103A700063D04C4B5B6803F00C03002B0BD0494B1D
:103A80005B6803F00C03082B1CD1464B5B6803F406
:103A90008033002B16D1434B1B6803F00203002B2D
:103AA00005D07B681B69012B01D00123C0E13D4B90
:103AB0001B6823F0F8027B685B69DB00394913431C
:103AC0000B603AE07B681B69002B20D0364B01224B
:103AD0001A60FEF7AFFA386108E0FEF7ABFA02466B
:103AE0003B69D31A022B01D90323A1E12D4B1B689B
:103AF00003F00203002BF0D02A4B1B6823F0F802DE
:103B00007B685B69DB00274913430B6015E0264B9C
:103B100000221A60FEF78EFA386108E0FEF78AFA92
:103B200002463B69D31A022B01D9032380E11D4BC6
:103B30001B6803F00203002BF0D17B681B6803F0C5
:103B40000803002B3AD07B689B69002B19D0174BD8
:103B500001221A60FEF76EFA386108E0FEF76AFA91
:103B600002463B69D31A022B01D9032360E10D4BB6
:103B70005B6A03F00203002BF0D0012000F0CEFAC4
:103B80001CE00A4B00221A60FEF754FA38610FE07D
:103B9000FEF750FA02463B69D31A022B08D90323D9
:103BA00046E100BF00100240000042428004424251
:103BB000924B5B6A03F00203002BE9D17B681B6820
:103BC00003F00403002B00F0A6800023FB758B4B51
:103BD000DB6903F08053002B0DD1884BDB69874AEA
:103BE00043F08053D361854BDB6903F08053BB60A6
:103BF000BB680123FB75824B1B6803F48073002BA9
:103C000018D17F4B1B687E4A43F480731360FEF724
:103C100011FA386108E0FEF70DFA02463B69D31A43
:103C2000642B01D9032303E1754B1B6803F48073F4
:103C3000002BF0D07B68DB68012B06D16F4B1B6A31
:103C40006E4A43F0010313622DE07B68DB68002BB2
:103C50000CD16A4B1B6A694A23F001031362674B5C
:103C60001B6A664A23F0040313621CE07B68DB686E
:103C7000052B0CD1614B1B6A604A43F004031362AD
:103C80005E4B1B6A5D4A43F0010313620BE05B4B22
:103C90001B6A5A4A23F001031362584B1B6A574AA6
:103CA00023F0040313627B68DB68002B15D0FEF75A
:103CB000C1F938610AE0FEF7BDF902463B69D31A43
:103CC00041F28832934201D90323B1E04B4B1B6A86
:103CD00003F00203002BEED014E0FEF7ABF93861DD
:103CE0000AE0FEF7A7F902463B69D31A41F288328F
:103CF000934201D903239BE0404B1B6A03F002036C
:103D0000002BEED1FB7D012B05D13C4BDB693B4AFF
:103D100023F08053D3617B68DB69002B00F0878040
:103D2000364B5B6803F00C03082B61D07B68DB69C2
:103D3000022B46D1334B00221A60FEF77BF9386123
:103D400008E0FEF777F902463B69D31A022B01D946
:103D500003236DE0294B1B6803F00073002BF0D1A7
:103D60007B681B6AB3F5803F08D1244B5B6823F462
:103D700000327B689B68214913434B601F4B5B6893
:103D800023F474127B68196A7B685B6A0B431B49D6
:103D900013434B601B4B01221A60FEF74BF938614D
:103DA00008E0FEF747F902463B69D31A022B01D916
:103DB00003233DE0114B1B6803F00073002BF0D090
:103DC00035E0104B00221A60FEF734F9386108E044
:103DD000FEF730F902463B69D31A022B01D90323BF
:103DE00026E0064B1B6803F00073002BF0D11EE0A9
:103DF0007B68DB69012B07D1012319E00010024029
:103E000000700040600042420B4B5B68FB60FB6847
:103E100003F480327B681B6A9A4206D1FB6803F484
:103E200070127B685B6A9A4201D0012300E0002394
:103E300018461837BD4680BD0010024080B584B0DA
:103E400000AF786039607B68002B01D10123D0E09E
:103E50006A4B1B6803F007033A689A4210D9674B14
:103E60001B6823F0070265493B6813430B60634BF3
:103E70001B6803F007033A689A4201D00123B8E0B7
:103E80007B681B6803F00203002B20D07B681B6853
:103E900003F00403002B05D0594B5B68584A43F4E8
:103EA000E06353607B681B6803F00803002B05D0B8
:103EB000534B5B68524A43F460535360504B5B680A
:103EC00023F0F0027B689B684D4913434B607B688D
:103ED0001B6803F00103002B40D07B685B68012B5B
:103EE00007D1474B1B6803F40033002B15D1012386
:103EF0007FE07B685B68022B07D1414B1B6803F0B6
:103F00000073002B09D1012373E03D4B1B6803F0C4
:103F10000203002B01D101236BE0394B5B6823F0D6
:103F200003027B685B68364913434B60FEF782F8F7
:103F3000F8600AE0FEF77EF80246FB68D31A41F209
:103F40008832934201D9032353E02D4B5B6803F081
:103F50000C027B685B689B009A42EBD1274B1B6885
:103F600003F007033A689A4210D2244B1B6823F0EF
:103F7000070222493B6813430B60204B1B6803F088
:103F800007033A689A4201D0012332E07B681B683C
:103F900003F00403002B08D0194B5B6823F4E062A4
:103FA0007B68DB68164913434B607B681B6803F032
:103FB0000803002B09D0124B5B6823F460527B6826
:103FC0001B69DB000E4913434B6000F021F80246E9
:103FD0000B4B5B681B0903F00F030A49CB5C22FA09
:103FE00003F3094A1360094B1B681846FDF7E0FF0D
:103FF000002318461037BD4680BD00BF0020024098
:1040000000100240C0A80008280000202C0000205A
:1040100080B487B000AF0023FB600023BB600023A7
:104020007B6100237B6000233B611E4B5B68FB6070
:10403000FB6803F00C03042B02D0082B03D027E00D
:10404000194B3B6127E0FB689B0C03F00F03174AF9
:10405000D35C7B60FB6803F48033002B10D0114BE2
:104060005B685B0C03F00103114AD35CBB607B68A7
:104070000D4A03FB02F2BB68B2FBF3F37B6104E081
:104080007B680C4A02FB03F37B617B693B6102E0C6
:10409000054B3B6100BF3B6918461C37BD4680BCE1
:1040A000704700BF0010024000127A00D8A8000834
:1040B000E8A8000800093D0080B400AF024B1B686F
:1040C0001846BD4680BC70472800002080B500AF70
:1040D000FFF7F2FF0246054B5B681B0A03F007037C
:1040E0000349CB5C22FA03F3184680BD001002405E
:1040F000D0A8000880B500AFFFF7DEFF0246054BF1
:104100005B68DB0A03F007030349CB5C22FA03F385
:10411000184680BD00100240D0A8000880B485B0C9
:1041200000AF78600A4B1B680A4AA2FB03235B0AB4
:104130007A6802FB03F3FB6000BFFB685A1EFA605B
:10414000002BF9D100BF00BF1437BD4680BC7047BB
:1041500028000020D34D621080B586B000AF786093
:1041600000233B610023FB607B681B6803F00103B5
:10417000002B7DD00023FB754F4BDB6903F0805390
:10418000002B0DD14C4BDB694B4A43F08053D3617C
:10419000494BDB6903F08053BB60BB680123FB75AF
:1041A000464B1B6803F48073002B18D1434B1B68EC
:1041B000424A43F480731360FDF73CFF386108E026
:1041C000FDF738FF02463B69D31A642B01D903235C
:1041D0006DE03A4B1B6803F48073002BF0D0364B34
:1041E0001B6A03F44073FB60FB68002B2ED07B68D6
:1041F0005B6803F44073FA689A4227D02E4B1B6A1F
:1042000023F44073FB602E4B01221A602C4B0022DA
:104210001A60294AFB681362FB6803F00103002B54
:1042200014D0FDF707FF38610AE0FDF703FF0246EF
:104230003B69D31A41F28832934201D9032336E015
:104240001D4B1B6A03F00203002BEED01A4B1B6AB6
:1042500023F440727B685B68174913430B62FB7D54
:10426000012B05D1144BDB69134A23F08053D36132
:104270007B681B6803F00203002B08D00E4B5B68C1
:1042800023F440427B689B680B4913434B607B6877
:104290001B6803F01003002B08D0074B5B6823F466
:1042A00080027B68DB68044913434B600023184697
:1042B0001837BD4680BD00BF0010024000700040AE
:1042C0004004424280B588B000AF786000237B6133
:1042D0000023FB6100233B610023FB600023BB61E3
:1042E0007B68102B0AD07B68102B00F28A807B68D9
:1042F000012B45D07B68022B75D082E0464B5B6872
:10430000FB60454B1B6803F08073002B7BD0FB6880
:104310009B0C03F00F03414AD35C3B61FB6803F441
:104320008033002B15D03C4B5B685B0C03F0010322
:104330003B4AD35C7B61FB6803F48033002B0DD0D8
:10434000384A7B69B2FBF3F23B6902FB03F3FB6182
:1043500004E03B69344A02FB03F3FB612E4B5B68CC
:1043600003F48003B3F5800F02D1FB69BB614AE01F
:10437000FB695B002D4AA2FB03235B08BB6142E0A3
:10438000254B1B6AFB60FB6803F44073B3F5807F29
:1043900008D1FB6803F00203002B03D04FF4004365
:1043A000BB611FE0FB6803F44073B3F5007F09D1E4
:1043B000194B5B6A03F00203002B03D049F640431C
:1043C000BB610FE0FB6803F44073B3F5407F1CD181
:1043D000114B1B6803F40033002B16D04FF224431B
:1043E000BB6112E011E0FFF785FE02460A4B5B68F5
:1043F0009B0B03F0030301335B00B2FBF3F3BB61E0
:1044000004E000BF02E000BF00E000BFBB69184647
:104410002037BD4680BD00BF00100240ECA8000858
:10442000FCA8000800127A0000093D00ABAAAAAA65
:1044300080B582B000AF78607B68002B01D101238A
:1044400076E07B685B6A002B08D17B685B68B3F51C
:10445000827F09D07B680022DA6105E07B68002258
:104460001A617B6800225A617B6800229A627B682D
:1044700093F85130DBB2002B06D17B68002283F821
:1044800050207868FDF72EFB7B68022283F85120CC
:104490007B681B681A687B681B6822F040021A6000
:1044A0007B685B6803F482727B689B6803F4044357
:1044B0001A437B68DB6803F400631A437B681B695B
:1044C00003F002031A437B685B6903F001031A439C
:1044D0007B689B6903F400731A437B68DB6903F014
:1044E00038031A437B681B6A03F0800342EA030126
:1044F0007B689B6A03F400527B681B680A431A605E
:104500007B689B691A0C7B681B6802F004025A6086
:104510007B681B68DA697B681B6822F40062DA61D9
:104520007B6800225A657B68012283F851200023B2
:1045300018460837BD4680BD80B588B000AFF8602A
:10454000B9603B601346FB800023FB77FB6893F860
:104550005030012B01D102232DE1FB68012283F8A9
:104560005020FDF767FDB861FB88FB82FB6893F87C
:104570005130DBB2012B02D00223FB7716E1BB687E
:10458000002B02D0FB88002B02D10123FB770DE129
:10459000FB68032283F85120FB6800225A65FB6800
:1045A000BA681A63FB68FA889A86FB68FA88DA8622
:1045B000FB6800229A63FB6800229A87FB6800224E
:1045C000DA87FB6800225A64FB6800221A64FB68E1
:1045D0009B68B3F5004F0FD1FB681B681A68FB6836
:1045E0001B6822F040021A60FB681B681A68FB68AF
:1045F0001B6842F480421A60FB681B681B6803F06A
:104600004003402B07D0FB681B681A68FB681B68D7
:1046100042F040021A60FB68DB68B3F5006F4FD1CF
:10462000FB685B68002B02D0FB8A012B42D1FB6840
:104630001B6B1A88FB681B68DA60FB681B6B9A1C93
:10464000FB681A63FB68DB8E9BB2013B9AB2FB6886
:10465000DA862FE0FB681B689B6803F00203022BDD
:1046600012D1FB681B6B1A88FB681B68DA60FB6859
:104670001B6B9A1CFB681A63FB68DB8E9BB2013BC9
:104680009AB2FB68DA8615E0FDF7D4FC0246BB69F6
:10469000D31A3A689A4203D83B68B3F1FF3F02D17C
:1046A0003B68002B06D10323FB77FB68012283F8CC
:1046B00051207BE0FB68DB8E9BB2002BCAD150E01F
:1046C000FB685B68002B02D0FB8A012B44D1FB689E
:1046D0001A6BFB681B680C3312781A70FB681B6B33
:1046E0005A1CFB681A63FB68DB8E9BB2013B9AB2D3
:1046F000FB68DA8630E0FB681B689B6803F0020306
:10470000022B13D1FB681A6BFB681B680C33127801
:104710001A70FB681B6B5A1CFB681A63FB68DB8E04
:104720009BB2013B9AB2FB68DA8615E0FDF782FC8A
:104730000246BB69D31A3A689A4203D83B68B3F180
:10474000FF3F02D13B68002B06D10323FB77FB68B8
:10475000012283F8512029E0FB68DB8E9BB2002BFD
:10476000C9D1BA693968F86800F0CCFB0346002B60
:1047700002D0FB6820225A65FB689B68002B0AD197
:1047800000233B61FB681B68DB683B61FB681B68BF
:104790009B683B613B69FB685B6D002B02D001238A
:1047A000FB7703E0FB68012283F85120FB680022BD
:1047B00083F85020FB7F18462037BD4680BD80B56A
:1047C00088B002AFF860B9603B601346FB800023FD
:1047D000FB75FB6893F85130DBB2012B02D002234A
:1047E000FB75FBE0FB685B68B3F5827F12D1FB6869
:1047F0009B68002B0ED1FB68042283F85120FA88B5
:104800003B6800931346BA68B968F86800F0EFF89F
:104810000346E8E0FB6893F85030012B01D10223F6
:10482000E1E0FB68012283F85020FDF703FC3861CA
:10483000BB68002B02D0FB88002B02D10123FB7543
:10484000CCE0FB68042283F85120FB6800225A6503
:10485000FB68BA689A63FB68FA889A87FB68FA88EB
:10486000DA87FB6800221A63FB6800229A86FB68DD
:104870000022DA86FB6800221A64FB6800225A6470
:10488000FB689B68B3F5004F0FD1FB681B681A6883
:10489000FB681B6822F040021A60FB681B681A68FC
:1048A000FB681B6822F480421A60FB681B681B6867
:1048B00003F04003402B07D0FB681B681A68FB68B5
:1048C0001B6842F040021A60FB68DB68002B6AD16B
:1048D00032E0FB681B689B6803F00103012B15D1D4
:1048E000FB681B6803F10C02FB689B6B1278D2B269
:1048F0001A70FB689B6B5A1CFB689A63FB68DB8F22
:104900009BB2013B9AB2FB68DA8715E0FDF792FB98
:1049100002463B69D31A3A689A4203D83B68B3F11E
:10492000FF3F02D13B68002B06D10323FB75FB68D8
:10493000012283F8512051E0FB68DB8F9BB2002BF2
:10494000C7D135E0FB681B689B6803F00103012BAE
:1049500013D1FB681B68DA68FB689B6B92B21A8004
:10496000FB689B6B9A1CFB689A63FB68DB8F9BB2AE
:10497000013B9AB2FB68DA8715E0FDF75BFB024664
:104980003B69D31A3A689A4203D83B68B3F1FF3FB8
:1049900002D13B68002B06D10323FB75FB68012283
:1049A00083F851201AE0FB68DB8F9BB2002BC9D142
:1049B0003A693968F86800F053FA0346002B02D0D0
:1049C000FB6820225A65FB685B6D002B02D0012337
:1049D000FB7503E0FB68012283F85120FB6800228D
:1049E00083F85020FB7D18461837BD4680BD80B542
:1049F0008CB000AFF860B9607A607B800123FB6205
:104A0000002387F82B30FB6893F85030012B01D13D
:104A1000022398E1FB68012283F85020FDF70AFB8E
:104A20007862FB6893F8513087F82330FB685B6845
:104A3000FB617B887B8397F82330012B0FD0FB69C8
:104A4000B3F5827F07D1FB689B68002B03D197F8F1
:104A50002330042B03D0022387F82B306DE1BB6891
:104A6000002B05D07B68002B02D07B88002B03D164
:104A7000012387F82B3060E1FB6893F85130DBB2FB
:104A8000042B03D0FB68052283F85120FB68002229
:104A90005A65FB687A689A63FB687A88DA87FB68EC
:104AA0007A889A87FB68BA681A63FB687A88DA861C
:104AB000FB687A889A86FB6800221A64FB680022E9
:104AC0005A64FB681B681B6803F04003402B07D047
:104AD000FB681B681A68FB681B6842F040021A609A
:104AE000FB68DB68B3F5006F7CD1FB685B68002B6B
:104AF00002D07B8B012B6AD1FB681B6B1A88FB6889
:104B00001B68DA60FB681B6B9A1CFB681A63FB6806
:104B1000DB8E9BB2013B9AB2FB68DA8657E0FB68FA
:104B20001B689B6803F00203022B1BD1FB68DB8E22
:104B30009BB2002B16D0FB6A012B13D1FB681B6BB9
:104B40001A88FB681B68DA60FB681B6B9A1CFB68A1
:104B50001A63FB68DB8E9BB2013B9AB2FB68DA8674
:104B60000023FB62FB681B689B6803F00103012BB9
:104B700019D1FB68DB8F9BB2002B14D0FB681B683C
:104B8000DA68FB689B6B92B21A80FB689B6B9A1C7D
:104B9000FB689A63FB68DB8F9BB2013B9AB2FB68B0
:104BA000DA870123FB62FDF745FA02467B6AD31AD6
:104BB000BA6B9A420BD8BB6BB3F1FF3F07D003230C
:104BC00087F82B30FB68012283F85120B5E0FB68A1
:104BD000DB8E9BB2002BA2D1FB68DB8F9BB2002B3C
:104BE0009DD180E0FB685B68002B02D07B8B012BA2
:104BF0006FD1FB681A6BFB681B680C3312781A7054
:104C0000FB681B6B5A1CFB681A63FB68DB8E9BB24C
:104C1000013B9AB2FB68DA865BE0FB681B689B6825
:104C200003F00203022B1CD1FB68DB8E9BB2002B2E
:104C300017D0FB6A012B14D1FB681A6BFB681B6849
:104C40000C3312781A70FB681B6B5A1CFB681A63D2
:104C5000FB68DB8E9BB2013B9AB2FB68DA860023CD
:104C6000FB62FB681B689B6803F00103012B19D1F1
:104C7000FB68DB8F9BB2002B14D0FB681B68DA68E3
:104C8000FB689B6BD2B21A70FB689B6B5A1CFB686B
:104C90009A63FB68DB8F9BB2013B9AB2FB68DA87B1
:104CA0000123FB62FDF7C6F902467B6AD31ABA6B91
:104CB0009A4203D8BB6BB3F1FF3F02D1BB6B002B11
:104CC00007D1032387F82B30FB68012283F851209A
:104CD00033E0FB68DB8E9BB2002B9ED1FB68DB8F41
:104CE0009BB2002B99D17A6AB96BF86800F00AF987
:104CF0000346002B06D0012387F82B30FB682022C7
:104D00005A651AE0FB689B68002B0AD100237B617F
:104D1000FB681B68DB687B61FB681B689B687B61C9
:104D20007B69FB685B6D002B03D0012387F82B3078
:104D300003E0FB68012283F85120FB68002283F81E
:104D4000502097F82B3018463037BD4680BD000004
:104D500080B588B000AFF860B9603B601346FB7166
:104D6000FDF768F90246BB6A9B1A3A681344FB6177
:104D7000FDF760F9B861394B1B685B011B0DFA69DF
:104D800002FB03F37B6154E03B68B3F1FF3F50D07B
:104D9000FDF750F90246BB69D31AFA699A4202D963
:104DA000FB69002B3DD1FB681B685A68FB681B68D8
:104DB00022F0E0025A60FB685B68B3F5827F11D194
:104DC000FB689B68B3F5004F04D0FB689B68B3F5A4
:104DD000806F07D1FB681B681A68FB681B6822F0AC
:104DE00040021A60FB689B6AB3F5005F0FD1FB6855
:104DF0001B681A68FB681B6822F400521A60FB6883
:104E00001B681A68FB681B6842F400521A60FB6852
:104E1000012283F85120FB68002283F850200323ED
:104E200017E07B69002B01D10023FB617B69013B0B
:104E30007B61FB681B689A68BB681340BA689A423A
:104E40000CBF01230023DBB21A46FB799A429BD1A7
:104E5000002318462037BD4680BD00BF2800002033
:104E600080B586B002AFF860B9607A60FB685B68B5
:104E7000B3F5827F11D1FB689B68B3F5004F04D076
:104E8000FB689B68B3F5806F07D1FB681B681A68E5
:104E9000FB681B6822F040021A60FB685B68B3F590
:104EA000827F17D1FB689B68B3F5806F12D17B6856
:104EB0000093BB6800220121F868FFF749FF034611
:104EC000002B1AD0FB685B6D43F02002FB685A652B
:104ED000032313E07B680093BB6800228021F868FD
:104EE000FFF736FF0346002B07D0FB685B6D43F0EE
:104EF0002002FB685A65032300E0002318461037A0
:104F0000BD4680BD80B586B002AFF860B9607A60FA
:104F10007B680093BB6800228021F868FFF718FFC8
:104F20000346002B07D0FB685B6D43F02002FB6853
:104F30005A65032300E0002318461037BD4680BDA4
:104F400080B582B000AF78607B68002B01D101236F
:104F500042E07B6893F84130DBB2002B06D17B68DE
:104F6000002283F840207868FCF706FE7B68242244
:104F700083F841207B681B68DA687B681B6822F431
:104F80000052DA60786800F071FD7B681B681A696E
:104F90007B681B6822F490421A617B681B685A691F
:104FA0007B681B6822F02A025A617B681B68DA68FA
:104FB0007B681B6842F40052DA607B6800225A6406
:104FC0007B68202283F841207B68202283F84220DE
:104FD0007B6800225A63002318460837BD4680BD0F
:104FE00080B58AB002AFF860B9603B601346FB80C1
:104FF00000237B61FB6893F84130DBB2202B6DD13D
:10500000BB68002B02D0FB88002B01D1012366E096
:10501000FB6800225A64FB68212283F84120FDF7D7
:1050200009F87861FB68FA889A84FB68FA88DA8460
:10503000FB689B68B3F5805F08D1FB681B69002B98
:1050400004D10023FB61BB68BB6103E0BB68FB616B
:105050000023BB612AE03B6800937B69002280212A
:10506000F86800F0F9FA0346002B01D0032336E07C
:10507000FB69002B0BD1BB691B881A46FB681B68B8
:10508000C2F308025A60BB690233BB6107E0FB69E7
:105090001A78FB681B685A60FB690133FB61FB6887
:1050A000DB8C9BB2013B9AB2FB68DA84FB68DB8C39
:1050B0009BB2002BCFD13B6800937B69002240213B
:1050C000F86800F0C9FA0346002B01D0032306E07C
:1050D000FB68202283F84120002300E002231846C9
:1050E0002037BD4680BD000080B5BAB000AF786003
:1050F0007B681B681B68C7F8E4307B681B68DB684B
:10510000C7F8E0307B681B685B69C7F8DC300023B8
:10511000C7F8D8300023C7F8D430D7F8E43003F00C
:105120000F03C7F8D830D7F8D830002B0FD1D7F8F5
:10513000E43003F02003002B09D0D7F8E03003F06F
:105140002003002B03D0786800F0D1FB5BE2D7F896
:10515000D830002B00F0DE80D7F8DC3003F00103FC
:10516000002B06D1D7F8E03003F49073002B00F049
:10517000D180D7F8E43003F00103002B0BD0D7F82F
:10518000E03003F48073002B05D07B685B6C43F048
:1051900001027B685A64D7F8E43003F00403002B63
:1051A0000BD0D7F8DC3003F00103002B05D07B686F
:1051B0005B6C43F002027B685A64D7F8E43003F07A
:1051C0000203002B0BD0D7F8DC3003F00103002BD7
:1051D00005D07B685B6C43F004027B685A64D7F8A7
:1051E000E43003F00803002B11D0D7F8E03003F0CF
:1051F0002003002B05D1D7F8DC3003F00103002B8E
:1052000005D07B685B6C43F008027B685A647B685E
:105210005B6C002B00F0F281D7F8E43003F0200340
:10522000002B08D0D7F8E03003F02003002B02D089
:10523000786800F05CFB7B681B685B6903F04003E7
:10524000002B14BF01230023DBB2C7F8D4307B68E6
:105250005B6C03F00803002B03D1D7F8D430002B8C
:105260004FD0786800F066FA7B681B685B6903F0D2
:105270004003002B41D07B681B681433C7F89C3077
:10528000D7F89C3053E8003FC7F89830D7F89830EB
:1052900023F04003C7F8D0307B681B681433D7F87D
:1052A000D020C7F8A820C7F8A430D7F8A410D7F8A2
:1052B000A82041E80023C7F8A030D7F8A030002B81
:1052C000D9D17B68DB6B002B13D07B68DB6B7E4A0C
:1052D0005A637B68DB6B1846FDF74EFC0346002BD8
:1052E00016D07B68DB6B5B6B7A68D26B1046984795
:1052F0000EE0786800F09CF90AE0786800F098F910
:1053000006E0786800F094F97B6800225A6475E141
:1053100000BF73E17B681B6B012B40F04F81D7F816
:10532000E43003F01003002B00F04881D7F8E030A0
:1053300003F01003002B00F041810023BB607B6869
:105340001B681B68BB607B681B685B68BB60BB68D5
:105350007B681B685B6903F04003002B00F0B6809C
:105360007B68DB6B1B685B68A7F8BE30B7F8BE30A4
:10537000002B00F045817B689B8DB7F8BE209A42D8
:1053800080F03E817B68B7F8BE20DA857B68DB6BF6
:105390009B69202B00F088807B681B680C33C7F862
:1053A0008830D7F8883053E8003FC7F88430D7F802
:1053B000843023F48073C7F8B8307B681B680C33E3
:1053C000D7F8B820C7F89420C7F89030D7F89010D5
:1053D000D7F8942041E80023C7F88C30D7F88C30F8
:1053E000002BD9D17B681B6814337B677B6F53E834
:1053F000003F3B673B6F23F00103C7F8B4307B6885
:105400001B681433D7F8B420C7F88020FB67F96F06
:10541000D7F8802041E80023BB67BB6F002BE1D1A8
:105420007B681B6814333B663B6E53E8003FFB65AB
:10543000FB6D23F04003C7F8B0307B681B68143362
:10544000D7F8B020FA66BB66B96EFA6E41E8002361
:105450007B667B6E002BE3D17B68202283F84220A1
:105460007B6800221A637B681B680C33FB64FB6C4F
:1054700053E8003FBB64BB6C23F01003C7F8AC30AB
:105480007B681B680C33D7F8AC20BA657B65796DF7
:10549000BA6D41E800233B653B6D002BE3D17B688F
:1054A000DB6B1846FDF72DFB7B6802225A637B6895
:1054B0009A8D7B68DB8D9BB2D31A9BB219467868B4
:1054C00000F0BFF89CE000BFF95700087B689A8D98
:1054D0007B68DB8D9BB2D31AA7F8CE307B68DB8D5F
:1054E0009BB2002B00F08E80B7F8CE30002B00F07E
:1054F00089807B681B680C33BB63BB6B53E8003F40
:105500007B637B6B23F49073C7F8C8307B681B68A0
:105510000C33D7F8C8207A643B64396C7A6C41E864
:105520000023FB63FB6B002BE3D17B681B68143308
:105530007B627B6A53E8003F3B623B6A23F00103D6
:10554000C7F8C4307B681B681433D7F8C4203A63AB
:10555000FB62F96A3A6B41E80023BB62BB6A002B2D
:10556000E3D17B68202283F842207B6800221A6303
:105570007B681B680C333B613B6953E8003FFB6071
:10558000FB6823F01003C7F8C0307B681B680C333E
:10559000D7F8C020FA61BB61B969FA6941E8002314
:1055A0007B617B69002BE3D17B6802225A63B7F8E9
:1055B000CE301946786800F044F823E0D7F8E4309C
:1055C00003F08003002B09D0D7F8E03003F080030C
:1055D000002B03D0786800F023F914E0D7F8E4300A
:1055E00003F04003002B0ED0D7F8E03003F0400367
:1055F000002B08D0786800F062F904E000BF02E0F8
:1056000000BF00E000BFE837BD4680BD80B483B076
:1056100000AF786000BF0C37BD4680BC704780B4D7
:1056200083B000AF786000BF0C37BD4680BC7047C8
:1056300080B483B000AF786000BF0C37BD4680BC3B
:10564000704780B483B000AF78600B467B8000BFAA
:105650000C37BD4680BC704780B590B000AFF86095
:10566000B9603B601346FB7150E0BB6CB3F1FF3F88
:105670004CD0BB6C002B07D0FCF7DCFC02463B682F
:10568000D31ABA6C9A4241D2FB681B680C33BB62D6
:10569000BB6A53E8003F7B627B6A23F4D073FB63F1
:1056A000FB681B680C33FA6B7A633B63396B7A6B6C
:1056B00041E80023FB62FB6A002BE5D1FB681B6815
:1056C00014337B617B6953E8003F3B613B6923F006
:1056D0000103BB63FB681B681433BA6B3A62FB615E
:1056E000F9693A6A41E80023BB61BB69002BE5D147
:1056F000FB68202283F84120FB68202283F84220A7
:10570000FB68002283F8402003230FE0FB681B683E
:105710001A68BB681340BA689A420CBF0123002381
:10572000DBB21A46FB799A429FD0002318464037D5
:10573000BD4680BD80B495B000AF78607B681B68C3
:105740000C337B637B6B53E8003F3B633B6B23F481
:105750009073FB647B681B680C33FA6C3A64FB63E0
:10576000F96B3A6C41E80023BB63BB6B002BE5D1BE
:105770007B681B6814333B623B6A53E8003FFB6164
:10578000FB6923F00103BB647B681B681433BA6CAC
:10579000FA62BB62B96AFA6A41E800237B627B6AFB
:1057A000002BE5D17B681B6B012B19D17B681B6833
:1057B0000C33FB60FB6853E8003FBB60BB6823F021
:1057C00010037B647B681B680C337A6CBA617B6165
:1057D0007969BA6941E800233B613B69002BE5D157
:1057E0007B68202283F842207B6800221A6300BF76
:1057F0005437BD4680BC704780B584B000AF786038
:105800007B685B6AFB60FB680022DA85FB6800222C
:10581000DA84F868FFF70CFF00BF1037BD4680BD83
:1058200080B485B000AF78607B6893F84130DBB21C
:10583000212B3ED17B689B68B3F5805F14D17B68D8
:105840001B69002B10D17B681B6AFB60FB681B88FF
:105850001A467B681B68C2F308025A607B681B6AA1
:105860009A1C7B681A6208E07B681B6A591C7A687C
:1058700011621A787B681B685A607B68DB8C9BB26C
:10588000013B9BB27A681946D184002B0FD17B680B
:105890001B68DA687B681B6822F08002DA607B682C
:1058A0001B68DA687B681B6842F04002DA600023FC
:1058B00000E0022318461437BD4680BC704780B50F
:1058C00082B000AF78607B681B68DA687B681B6811
:1058D00022F04002DA607B68202283F84120786859
:1058E000FFF794FE002318460837BD4680BD80B5FB
:1058F0008CB000AF78607B6893F84230DBB2222B2B
:1059000040F0AE807B689B68B3F5805F17D17B6801
:105910001B69002B13D10023FB627B689B6ABB626F
:105920007B681B685B689BB2C3F308039AB2BB6ACF
:105930001A807B689B6A9A1C7B689A6226E07B6867
:105940009B6AFB620023BB627B689B68B3F5805F48
:1059500007D07B689B68002B0AD17B681B69002BF2
:1059600006D17B681B685B68DAB2FB6A1A7008E0D4
:105970007B681B685B68DBB203F07F03DAB2FB6A0B
:105980001A707B689B6A5A1C7B689A627B68DB8D05
:105990009BB2013B9BB27A681946D185002B5DD141
:1059A0007B681B68DA687B681B6822F02002DA607B
:1059B0007B681B68DA687B681B6822F48072DA6097
:1059C0007B681B685A697B681B6822F001025A6178
:1059D0007B68202283F842207B6800225A637B6820
:1059E0001B6B012B35D17B6800221A637B681B6817
:1059F0000C337B617B6953E8003F3B613B6923F0DB
:105A000010037B627B681B680C337A6A3A62FB6125
:105A1000F9693A6A41E80023BB61BB69002BE5D113
:105A20007B681B681B6803F01003102B0AD100234E
:105A3000FB607B681B681B68FB607B681B685B689E
:105A4000FB60FB687B689B8D19467868FFF7F9FD62
:105A500002E07868FFF7E3FD002302E0002300E0A6
:105A6000022318463037BD4680BD000080B584B0A3
:105A700000AF78607B681B681B6923F440517B682A
:105A8000DA687B681B680A431A617B689A687B68DE
:105A90001B691A437B685B691343BB607B681B68A7
:105AA000DB6823F4B05323F00C037A681268B968FA
:105AB0000B43D3607B681B685B6923F440717B6890
:105AC0009A697B681B680A435A617B681B682C4A89
:105AD000934203D1FEF70EFBF86002E0FEF7F6FA00
